:020000040800F2
:10000000008001206554000849520008555200083C
:100010005B520008615200086752000800000000AF
:100020000000000000000000000000006D52000809
:100030007952000800000000855200089152000823
:10004000B5540008B5540008B5540008B55400086C
:10005000B5540008B5540008B5540008B55400085C
:10006000B5540008B5540008B5540008B55400084C
:10007000B5540008B5540008B5540008B55400083C
:10008000B5540008B5540008B5540008000000003D
:10009000000000000000000000000000B55400084F
:1000A000B5540008B5540008B5540008B55400080C
:1000B000B5540008B5540008B5540008B5540008FC
:1000C000B5540008B5540008B5540008B5540008EC
:1000D000B5540008B5540008B554000800000000ED
:1000E000B5540008B5540008B554000800000000DD
:1000F000000000000000000000000000B5540008EF
:1001000000000000B5540008B5540008B5540008BC
:1001100000000000000000000000000000000000DF
:10012000B5540008B5540008B5540008B55400088B
:10013000B5540008000000000000000000000000AE
:10014000000000000000000000000000B55400089E
:10015000B5540008B5540008B5540008B55400085B
:10016000B5540008B554000800000000000000006D
:10017000000000000000000000000000000000007F
:1001800000000000B554000800000000000000005E
:04019000B55400085A
:1001A00010B5054C237833B9044B13B10448AFF3B1
:1001B00000800123237010BDDC020020000000003D
:1001C0008C7A020808B5034B1BB103490348AFF30F
:1001D000008008BD00000000E00200208C7A0208C8
:1001E00001F0FF01102A2BDB10F0070F08D010F8E8
:1001F000013B013A8B422DD010F0070F42B3F6D1EC
:10020000F0B441EA012141EA014122F007047FF004
:1002100000070023F0E80256083C85EA010586EA5B
:10022000010685FA47F5A3FA87F586FA47F6A5FA97
:1002300087F68EB9EED1F0BC01F0FF0102F00702A3
:1002400032B110F8013B013A83EA010313B1F8D14E
:100250000020704701387047002D06BF354603382F
:10026000073815F0010F07D1013015F4807F02BF68
:10027000013015F4C03F0130F0BC0138704700BFB9
:1002800010F8012B11F8013B012A28BF9A42F7D040
:10029000D01A7047034613F8012B002AFBD1181A15
:1002A0000138704781F0004102E000BF83F0004355
:1002B00030B54FEA41044FEA430594EA050F08BF01
:1002C00090EA020F1FBF54EA000C55EA020C7FEAC5
:1002D000645C7FEA655C00F0E2804FEA5454D4EB42
:1002E0005555B8BF6D420CDD2C4480EA020281EA0C
:1002F000030382EA000083EA010180EA020281EA44
:100300000303362D88BF30BD11F0004F4FEA013195
:100310004FF4801C4CEA113102D0404261EB4101A4
:1003200013F0004F4FEA03334CEA133302D052422A
:1003300063EB430394EA050F00F0A780A4F10104E6
:10034000D5F1200E0DDB02FA0EFC22FA05F2801820
:1003500041F1000103FA0EF2801843FA05F3594106
:100360000EE0A5F120050EF1200E012A03FA0EFC85
:1003700028BF4CF0020C43FA05F3C01851EBE371AF
:1003800001F0004507D54FF0000EDCF1000C7EEBCC
:1003900000006EEB0101B1F5801F1BD3B1F5001F0A
:1003A0000CD349085FEA30004FEA3C0C04F1010429
:1003B0004FEA445212F5800F80F09A80BCF1004F52
:1003C00008BF5FEA500C50F1000041EB045141EAD4
:1003D000050130BD5FEA4C0C404141EB0101013C9D
:1003E00028BFB1F5801FE9D291F0000F04BF01468C
:1003F0000020B1FA81F308BF2033A3F10B03B3F15E
:1004000020020CDA0C3208DD02F1140CC2F10C02ED
:1004100001FA0CF021FA02F10CE002F11402D8BF4B
:10042000C2F1200C01FA02F120FA0CFCDCBF41EA17
:100430000C019040E41AA2BF01EB0451294330BDE6
:100440006FEA04041F3C1CDA0C340EDC04F11404C3
:10045000C4F1200220FA04F001FA02F340EA03009A
:1004600021FA04F345EA030130BDC4F10C04C4F1E0
:10047000200220FA02F001FA04F340EA03002946C0
:1004800030BD21FA04F0294630BD94F0000F83F40A
:10049000801306BF81F480110134013D4EE77FEAED
:1004A000645C18BF7FEA655C29D094EA050F08BF39
:1004B00090EA020F05D054EA000C04BF194610461A
:1004C00030BD91EA030F1EBF0021002030BD5FEA5E
:1004D000545C05D14000494128BF41F0004130BD86
:1004E00014F580043CBF01F5801130BD01F00045DA
:1004F00045F0FE4141F470014FF0000030BD7FEA4D
:10050000645C1ABF194610467FEA655C1CBF0B4647
:10051000024650EA013406BF52EA033591EA030F5E
:1005200041F4002130BD00BF90F0000F04BF002156
:10053000704730B54FF4806404F132044FF0000589
:100540004FF0000150E700BF90F0000F04BF002102
:10055000704730B54FF4806404F1320410F0004568
:1005600048BF40424FF000013EE700BF42004FEA63
:10057000E2014FEA31014FEA02701FBF12F07F43E0
:1005800093F07F4F81F06051704732F07F4208BF97
:10059000704793F07F4F04BF41F40021704730B59E
:1005A0004FF4607401F0004521F000411CE700BFEA
:1005B00050EA010208BF704730B54FF000050AE06D
:1005C00050EA010208BF704730B511F0004502D56E
:1005D000404261EB41014FF4806404F132045FEA70
:1005E000915C3FF4D8AE4FF003025FEADC0C18BF19
:1005F00003325FEADC0C18BF033202EBDC02C2F10B
:10060000200300FA03FC20FA02F001FA03FE40EA9C
:100610000E0021FA02F11444BDE600BF70B54FF0A0
:10062000FF0C4CF4E06C1CEA11541DBF1CEA13557E
:1006300094EA0C0F95EA0C0F00F0DEF82C4481EAE6
:10064000030621EA4C5123EA4C5350EA013518BF06
:1006500052EA033541F4801143F4801338D0A0FBF3
:1006600002CE4FF00005E1FB02E506F00042E0FBA0
:1006700003E54FF00006E1FB03569CF0000F18BFA6
:100680004EF0010EA4F1FF04B6F5007F64F540744E
:1006900004D25FEA4E0E6D4146EB060642EAC621E1
:1006A00041EA55514FEAC52040EA5E504FEACE2E4E
:1006B000B4F1FD0C88BFBCF5E06F1ED8BEF1004F51
:1006C00008BF5FEA500E50F1000041EB045170BDCD
:1006D00006F0004646EA010140EA020081EA030111
:1006E000B4EB5C04C2BFD4EB0C0541EA045170BD0D
:1006F00041F480114FF0000E013C00F3AB8014F187
:10070000360FDEBF002001F0004170BDC4F10004CF
:10071000203C35DA0C341BDC04F11404C4F1200550
:1007200000FA05F320FA04F001FA05F240EA0200AB
:1007300001F0004221F0004110EBD37021FA04F6E1
:1007400042EB06015EEA430E08BF20EAD37070BD9B
:10075000C4F10C04C4F1200500FA04F320FA05F0FA
:1007600001FA04F240EA020001F0004110EBD370FC
:1007700041F100015EEA430E08BF20EAD37070BD6C
:10078000C4F1200500FA05F24EEA020E20FA04F345
:1007900001FA05F243EA020321FA04F001F00041F4
:1007A00021FA04F220EA020000EBD3705EEA430E65
:1007B00008BF20EAD37070BD94F0000F0FD101F094
:1007C0000046400041EB010111F4801F08BF013CCD
:1007D000F7D041EA060195F0000F18BF704703F00B
:1007E0000046520043EB030313F4801F08BF013D92
:1007F000F7D043EA0603704794EA0C0F0CEA13554E
:1008000018BF95EA0C0F0CD050EA410618BF52EA07
:100810004306D1D181EA030101F000414FF000000D
:1008200070BD50EA410606BF1046194652EA43061B
:1008300019D094EA0C0F02D150EA013613D195EA8F
:100840000C0F05D152EA03361CBF104619460AD1D7
:1008500081EA030101F0004141F0FE4141F47001E1
:100860004FF0000070BD41F0FE4141F4780170BDD1
:1008700070B54FF0FF0C4CF4E06C1CEA11541DBF36
:100880001CEA135594EA0C0F95EA0C0F00F0A7F838
:10089000A4EB050481EA030E52EA03354FEA013165
:1008A00000F088804FEA03334FF0805545EA131378
:1008B00043EA12634FEA022245EA111545EA106540
:1008C0004FEA00260EF000419D4208BF964244F1D7
:1008D000FD0404F5407402D25B084FEA3202B61AF6
:1008E00065EB03055B084FEA32024FF480104FF4CA
:1008F000002CB6EB020E75EB030E22BFB61A75463E
:1009000040EA0C005B084FEA3202B6EB020E75EBD0
:10091000030E22BFB61A754640EA5C005B084FEA38
:100920003202B6EB020E75EB030E22BFB61A754605
:1009300040EA9C005B084FEA3202B6EB020E75EB10
:10094000030E22BFB61A754640EADC0055EA060ED1
:1009500018D04FEA051545EA16754FEA06164FEA14
:10096000C30343EA52734FEAC2025FEA1C1CC0D1C0
:1009700011F4801F0BD141EA00014FF000004FF04D
:10098000004CB6E711F4801F04BF01430020B4F10E
:10099000FD0C88BFBCF5E06F3FF6AFAEB5EB030CC6
:1009A00004BFB6EB020C5FEA500C50F1000041EBC3
:1009B000045170BD0EF0004E4EEA113114EB5C0490
:1009C000C2BFD4EB0C0541EA045170BD41F4801163
:1009D0004FF0000E013C90E645EA060E8DE60CEA6B
:1009E000135594EA0C0F08BF95EA0C0F3FF43BAF88
:1009F00094EA0C0F0AD150EA01347FF434AF95EA3F
:100A00000C0F7FF425AF104619462CE795EA0C0F22
:100A100006D152EA03353FF4FDAE1046194622E7EF
:100A200050EA410618BF52EA43067FF4C5AE50EAC9
:100A300041047FF40DAF52EA43057FF4EBAE12E7B9
:100A40004FF0FF3C06E000BF4FF0010C02E000BF9A
:100A50004FF0010C4DF804CD4FEA410C7FEA6C5C7D
:100A60004FEA430C18BF7FEA6C5C1BD001B050EA20
:100A7000410C0CBF52EA430C91EA030F02BF90EA0B
:100A8000020F0020704710F1000F91EA030F58BFCA
:100A9000994208BF90422CBFD8176FEAE37040F02C
:100AA000010070474FEA410C7FEA6C5C02D150EACA
:100AB000013C07D14FEA430C7FEA6C5CD6D152EA85
:100AC000033CD3D05DF8040B704700BF844610464A
:100AD00062468C461946634600E000BF01B5FFF749
:100AE000B7FF002848BF10F1000F01BD4DF808ED19
:100AF000FFF7F4FF0CBF012000205DF808FB00BFEA
:100B00004DF808EDFFF7EAFF34BF012000205DF843
:100B100008FB00BF4DF808EDFFF7E0FF94BF012090
:100B200000205DF808FB00BF4DF808EDFFF7CEFF91
:100B300094BF012000205DF808FB00BF4DF808EDD0
:100B4000FFF7C4FF34BF012000205DF808FB00BFA1
:100B50004FEA410C7FEA6C5C02D150EA013C0AD1B9
:100B60004FEA430C7FEA6C5C02D152EA033C02D1AB
:100B70004FF0000070474FF0010070474FEA41020C
:100B800012F5001215D211D56FF47873B3EB6252DF
:100B900012D94FEAC12343F0004343EA505311F006
:100BA000004F23FA02F018BF404270474FF0000098
:100BB000704750EA013005D111F0004008BF6FF0D6
:100BC000004070474FF00000704700BF4A0011D24C
:100BD00012F5001211D20DD56FF47873B3EB625297
:100BE0000ED44FEAC12343F0004343EA505323FAA3
:100BF00002F070474FF00000704750EA013002D118
:100C00004FF0FF3070474FF0000070474FEA41024D
:100C1000B2F1E04324BFB3F5001CDCF1FE5C0DD95A
:100C200001F0004C4FEAC0024CEA5070B2F1004FA4
:100C300040EB830008BF20F00100704711F0804FA7
:100C400021D113F13872BCBF01F00040704741F46C
:100C500080114FEA5252C2F11802C2F1200C10FA70
:100C60000CF320FA02F018BF40F001004FEAC12354
:100C70004FEAD32303FA0CFC40EA0C0023FA02F3F8
:100C80004FEA4303CCE77FEA625307D150EA0133CE
:100C90001EBF4FF0FE4040F44000704701F000409E
:100CA00040F0FE4040F40000704700BF4FF0FF3CB2
:100CB00006E000BF4FF0010C02E000BF4FF0010C56
:100CC0004DF804CD4FEA40024FEA41037FEA226C1F
:100CD00018BF7FEA236C11D001B052EA530C18BF41
:100CE00090EA010F58BFB2EB030088BFC81738BFA6
:100CF0006FEAE17018BF40F0010070477FEA226C94
:100D000002D15FEA402C05D17FEA236CE4D15FEA8F
:100D1000412CE1D05DF8040B704700BF84460846C3
:100D20006146FFE70FB5FFF7C9FF002848BF10F184
:100D3000000F0FBD4DF808EDFFF7F4FF0CBF0120C9
:100D400000205DF808FB00BF4DF808EDFFF7EAFF53
:100D500034BF012000205DF808FB00BF4DF808ED0E
:100D6000FFF7E0FF94BF012000205DF808FB00BF03
:100D70004DF808EDFFF7D2FF94BF012000205DF889
:100D800008FB00BF4DF808EDFFF7C8FF34BF012096
:100D900000205DF808FB00BF4FEA40024FEA410324
:100DA0007FEA226C02D15FEA402C08D17FEA236CF3
:100DB00002D15FEA412C02D14FF0000070474FF0A2
:100DC0000100704753B94AB9002908BF00281CBF69
:100DD0004FF0FF314FF0FF3001F0F6B8ADF1080CE5
:100DE0006DE904CE00F03EF8DDF804E0DDE9022311
:100DF00004B0704738B505460C4628462146002207
:100E00000023FFF77DFE28B928462146BDE838407B
:100E100000F00AB8284604F1004100F005F840420D
:100E200061EB410138BD00BFD0B50C4B0022064636
:100E30000F46FFF7F3FBFFF7C9FE0446FFF774FB0D
:100E4000074B0022FFF7EAFB02460B4630463946C5
:100E5000FFF72CFAFFF7BAFE2146D0BD0000F03DA7
:100E60000000F0412DE9F047089E0D4604468E46ED
:100E7000002B40F082808A42174646D9B2FA82F2AD
:100E80004AB1C2F1200105FA02F320FA01F19740BC
:100E900041EA030E94404FEA1748230CBEFBF8FCCE
:100EA000B9B208FB1CEE43EA0E430CFB01F098427A
:100EB0000AD9FB180CF1FF3580F01681984240F2F8
:100EC0001381ACF1020C3B441B1AA4B2B3FBF8F043
:100ED00008FB103344EA034400FB01F1A14209D9A5
:100EE0003C1900F1FF3380F00181A14240F2FE8005
:100EF00002383C44641A40EA0C4000211EB1D44040
:100F00000023C6E90043BDE8F08702B9FFDEB2FA6C
:100F100082F2002A4FD1CB1B4FEA174E1FFA87F8F7
:100F20000121B3FBFEFC250C0EFB1C3345EA0345F7
:100F300008FB0CF3AB4207D97D190CF1FF3002D24C
:100F4000AB4200F2E7808446ED1AA3B2B5FBFEF097
:100F50000EFB105543EA054408FB00F8A04507D9ED
:100F60003C1900F1FF3302D2A04500F2D7801846A9
:100F7000A4EB080440EA0C40C0E78B4208D9002EDD
:100F800000F0AF800021C6E900050846BDE8F08703
:100F9000B3FA83F100294BD1AB4202D3824200F273
:100FA000B780841A65EB030301209E46002EAAD069
:100FB000C6E9004EA7E7C2F1200C01FA02F3974000
:100FC00020FA0CF04FEA174E21FA0CFC1843BCFB38
:100FD000FEF1050C0EFB11CC1FFA87F845EA0C4513
:100FE00001FB08F3AB4204FA02F409D97D1901F1BF
:100FF000FF3C80F08B80AB4240F2888002393D4458
:10100000EB1A85B2B3FBFEF00EFB103345EA034545
:1010100000FB08F3AB4207D97D1900F1FF3C71D208
:10102000AB426FD902383D44EB1A40EA014178E700
:10103000C1F1200C8B4022FA0CF71F4320FA0CF46C
:1010400005FA01F34FEA174E25FA0CF51C43230C61
:10105000B5FBFEF91FFA87F80EFB195543EA054563
:1010600009FB08FAAA4502FA01F200FA01F308D9CD
:101070007D1909F1FF3047D2AA4545D9A9F10209E6
:101080003D44A5EB0A05A4B2B5FBFEF00EFB1055DE
:1010900044EA054400FB08F8A04507D93C1900F1D3
:1010A000FF352DD2A0452BD902383C4440EA0940F7
:1010B000A4EB0804A0FB02894C45C6464D4619D353
:1010C00016D05EB1B3EB0E0264EB050404FA0CFC1F
:1010D000CA404CEA0202CC40C6E900240021BDE827
:1010E000F087314630460EE7AC46EDE6184601E79C
:1010F0004345E6D2B8EB020E69EB07050138E0E79D
:101100002846D3E760468FE78146BAE7614677E72E
:1011100008464BE7ACF1020C3D4415E702383C446D
:1011200026E700BF03685A004CBF43F0004323F09A
:1011300000431844704700BF2DE9F84329B34F1E00
:10114000044615463E464FF0000808EB060101EB49
:10115000D171491004EBC1094846FFF7E3FF03468C
:10116000C80008308F42204409D0AB4209D8FFF7AD
:10117000D9FF0138A8420AD201F10108E5E7AB42E4
:1011800005D9884501D04E1EDFE74FF000094846DB
:10119000BDE8F883012807D0022807D0044B0028B7
:1011A0000CBF18460020704702487047024870473D
:1011B000591800085D1800086118000830B5234B65
:1011C00083B004468D1E3BB301A92846AFF30080CF
:1011D000E8B101992A46FFF7AFFF0146B8B1FFF722
:1011E000A1FF4B68A064012B2BD0002B01F1040060
:1011F00023DBFFF797FF0023C4E913030368002BE9
:1012000010DBFFF78FFF2061002003B030BD00230B
:101210000920236103B030BD0D490E48091AC910D9
:101220000191D7E7C3F30360FFF7B4FF0028206103
:1012300014BF0020092003B030BD0123C4E913030B
:10124000DCE7002323610520DFE700BF000000008A
:1012500068C80208A8C602080368DA0710B5044681
:1012600006D49B0700F1480009D500F04BFC236829
:10127000590709D51A070ED5DB0613D510BD00F0A6
:1012800039FC23685907F5D404F1D00000F042FC82
:1012900023681A07F0D404F5A87000F043FC236813
:1012A000DB06EBD404F5E870BDE8104000F07EBC2E
:1012B0000346006800B11844704700BF092070471A
:1012C000704700BF70B504460E46316C2046FFF7EC
:1012D00075FF054688B9336C636132462369214640
:1012E000012098470828F0D0072806D12846316CFD
:1012F000FFF7E6FF301D00F0F1FB1DF090FF00BF8F
:101300002DE9F0470D1D064614460FCDADF5727D53
:101310000DF10C0CACE80F000FCDACE80F000FCDB9
:10132000ACE80F0095E80F0002ADF768D6F818801A
:101330008CE80F0000232B6021E02B6C73614FF4CD
:10134000F07229467AA81EF0C7FD33697AAA3146A1
:1013500050469847889BCDE9005821466B648146EA
:10136000334632460120B8470446E8B94FF4F072DC
:101370007AA928461EF0B0FDB9F1080F1BD1296CDF
:101380003046FFF71BFF09345FFA84FA81460028D4
:10139000D3D0AB6B4AF01001CDE9005832466B64F4
:1013A00001203346B84708B14FF0090948460DF50A
:1013B000727DBDE8F087B9F1070FF5D12046296CA1
:1013C000FFF77EFF03A800F089FB00BF406C704769
:1013D000F0B5CB6B0B640E1D0F4605460FCEF9B072
:1013E00001AC0FC40FCE0FC40FCE0FC496E80F0090
:1013F0004FF0FF3684E80F00009606E02B696A463E
:10140000294698470828044608D110992846FFF72E
:10141000D5FE0028F2D0092079B0F0BD6846FFF76C
:101420001BFF062CF7D139462846FFF74BFF00BFBC
:1014300030B4DD6BC160826119461D64002230BC8E
:101440005EE700BF70B5C66843690B64AEB9036957
:101450000A4604460D46014602209847072805D053
:1014600008280FD129462046FFF72CFF3046296C6B
:10147000FFF726FF281D00F031FB0122FFF740FF98
:101480001DF0CDFE1DF0CBFEC2681AB1CA6B0A6416
:10149000002235E79CE700BF704700BF8368014624
:1014A0000BB1012018477047012912D009D873B930
:1014B0000F2A0CD800EB820218465368009A13607A
:1014C00070470339012994BF012002207047022090
:1014D00070470846704700BF10B584B0002303ACC6
:1014E0000A4600941946FFF7DFFF039804B010BDC9
:1014F000012912D009D873B90F2A0CD800EB820049
:10150000009A12684260184670470339012994BF57
:10151000012002207047022070470846704700BF34
:1015200010B584B0002303AC039200940A46194618
:10153000FFF7DEFF04B010BDF0B5D36B1364151DCB
:101540008C4606460FCDADF50F7D17AC0FC40FCD01
:101550000FC40FCD0FC495E80F004FF0FF3784E89C
:101560000F006546169710E0FFF7DAFF294616A828
:10157000B047034616AA6946082083B9049B9847DA
:10158000052804460CD0092809D026996846FFF79B
:1015900015FE03466A460C2116A8002BE4D0092448
:1015A00016A8FFF759FE20460DF50F7DF0BD00BFD0
:1015B0002DE9F04FCC6C89B00D4654F8041B06940D
:1015C000174600F003081E46002B79D00B0CDAB248
:1015D00009048DF81D30022304EB820405918DF877
:1015E0001C302B6DB8F1020F08BFAC6B13F0010378
:1015F0000CD0384605A900F073FB18B9082009B0D3
:10160000BDE8F08F092009B0BDE8F08FD4F800A044
:10161000BAF1000FEDD0019300F008030293022EFF
:101620004AD0B4F800A0B4F802900434AA6C29F0AF
:10163000010B0F2138469344FFF74EFF834539D8FD
:101640002AF001025A44824294BF002001204FEA4E
:10165000490303F002030AF0010A43EA0A03012BDB
:1016600049D0022B32D0002BCCD1B8F1000F02D0E0
:10167000002840F0CD800434D4F800A0BAF1000F67
:10168000CDD105A9384600F02BFB0028BAD1019B2B
:10169000002BB3D00F213846FFF71EFF0E21024664
:1016A0003846FFF73DFF38466A4A0F21FFF738FFFB
:1016B0000720A8E70020CAE7D4F804900834B5E76B
:1016C000090203230591ADF81C308AE7236823F053
:1016D000004BB8F1000F45D128B1029A002A5CD026
:1016E000BBF1000F74D0002B00DA04340BF1010BB6
:1016F00004EB8B04C0E7B8F1000F19D1B0B1D4E905
:101700000023991C4FEAD2723FF47CAF05F15801D7
:101710000133049100F09080201DFFF7C9FD04AB58
:101720000146284603F0FEFF00285BD10834A3E7FA
:101730000D213846D5F82090FFF7CEFE8145F5D132
:10174000AB6A9C42F2D12046FFF7ECFC0F21024627
:101750003846FFF7E5FE38462A460021FFF7E0FE4F
:10176000072050E70D213846D5F82090FFF7B4FE4A
:10177000814501D02368B6E7AB6A9C42FAD10422C6
:101780000021C5E90B12A318C5F828B06B632368C4
:101790008B4259DB01230193A8E705F15803CDF8EB
:1017A0000C8004F1040AB04691461E460DE00496F2
:1017B000FFF77EFD04AB01460022284603F0B2FF8E
:1017C00009F101090AF1040AE8B9D9455046EED1F8
:1017D00038460D21FFF780FE049B2862C5E90934D5
:1017E000062010E781460D213846FFF775FEB9F156
:1017F000020F286225D12B46049A43F82C2F6B62E6
:10180000AC620620FFE646462368DDF80C806AE7F6
:101810002046FFF787FC04340246AC632846144692
:1018200003F0DEFF00283FF4EDAE384622460F21DC
:10183000FFF776FE0720E6E638460D21FFF74CFE5F
:101840002862049B6B62DBE70BF1010004EB800074
:101850007AE700BF813701080023A9E60123A7E644
:101860000223A5E62DE9F0430646C3B015461C4603
:10187000042900F2B980DFE801F09A53B729030088
:10188000002C40F0B180102A00F2AE800368D80628
:1018900000F1F38020AF384600F092F9B06B0023DE
:1018A000012404FA03F22A42014604D051F8042B21
:1018B00047F8232008460133042BF2D1B0633846A1
:1018C00000F074F9002043B0BDE8F083032C40F031
:1018D0008B8094B204EB1243102B4FEA124500F2B6
:1018E000838003681F0700F1D08020AF384600F0E6
:1018F0003BF907EBC501B56B54B10B46E81A01EB98
:10190000C401E4001A5843F8042B8B42FAD1254451
:101910003846B56300F006F9002043B0BDE8F08317
:10192000012C4FEA124895B25AD0052C5CD108EB35
:101930000509B9F1200F57D8B8F10F0F77D9A9468B
:10194000002D40F08880B36B6DB320AF4FF00009DD
:1019500007EBC807043F03EBC50553F8041B47F822
:10196000041FAB42F9D1B9F1000F0FD06F464146C9
:10197000102938BF102107EBC101843903EBC905D9
:1019800053F8040B41F8040FAB42F9D1012C00F0DD
:101990008480B8F10F0FB56345D9B9F1000F02D0BB
:1019A000684600F0B7F8002043B0BDE8F083DCB92A
:1019B000876B2346012094B206F1040C00FA03F26F
:1019C0002242394604D051F8042B4CF823200F460C
:1019D0000133102BF2D115F40050E4D1B76304E0C9
:1019E00008EB0503102B03D9022043B0BDE8F083B8
:1019F000B8F10F0FF8D83368DA0706D5304623F070
:101A0000030340F8483B00F079F820AF384600F077
:101A100075F8B36B002D99D11D460435B563384672
:101A200000F068F8BFE720A800F06CF8B5E7B9F15E
:101A3000100F40D9A9F110093368D90708D523F050
:101A40000103304643F0020340F8483B00F05EF8E3
:101A5000B9F1000F32D033685A0720D4B8F10F0F14
:101A600025D96F463846C8F1100500F057F8002D0B
:101A7000B36B7FF77CAF20AF6AE723F010033360CE
:101A800006F5E87000F09CF804E723F00803036013
:101A900000F5A87000F068F827E720AFBDE73046F2
:101AA00023F0040340F8D03B00F038F8D6E720A834
:101AB00000F02CF8D5E74FF00009BDE7B8F10F0FA3
:101AC0003FF641AF20AF384600F020F8B36B002D51
:101AD0007FF43CAF384600F015F864E700F13401BC
:101AE00091E838009C46A6464CF8045D90E8FF0F4C
:101AF000E54600BD90EC210B704700BF80EC210B48
:101B0000704700BF90EC200B704700BF80EC200BAB
:101B1000704700BFD0EC200B704700BFC0EC200B1B
:101B2000704700BFF0EC0201F0EC0211F0EC022172
:101B3000F0EC0231F0EC0241F0EC0251F0EC026109
:101B4000F0EC0271F0EC0281F0EC0291F0EC02A1F9
:101B5000F0EC02B1F0EC02C1F0EC02D1F0EC02E1E9
:101B6000F0EC02F1704700BFE0EC0201E0EC021182
:101B7000E0EC0221E0EC0231E0EC0241E0EC025149
:101B8000E0EC0261E0EC0271E0EC0281E0EC029139
:101B9000E0EC02A1E0EC02B1E0EC02C1E0EC02D129
:101BA000E0EC02E1E0EC02F1704700BFB0FC018123
:101BB000B0FC0191B0FC01A1B0FC01B1704700BFC5
:101BC000A0FC0181A0FC0191A0FC01A1A0FC01B13D
:101BD000704700BFEC4600B52DE900502DE9FF1F0E
:101BE0004FF000032DE90C0001A9FFF7F1FBDDF830
:101BF00040E012B0704700BFEC4600B52DE9005040
:101C00002DE9FF1F4FF000032DE90C0001A9FFF79C
:101C100019FCDDF840E012B0704700BFEC4600B59B
:101C20002DE900502DE9FF1F4FF000032DE90C00B6
:101C300001A9FFF729FCDDF840E012B0704700BFB2
:101C4000EC4600B52DE900502DE9FF1F4FF00003D1
:101C50002DE90C0001ABFFF7EBFBDDF840E012B023
:101C6000704700BFEC4600B52DE900502DE9FF1F7D
:101C70004FF000032DE90C0001AAFFF75DFCDDF831
:101C800040E012B0704700BF027A7AB9437AA3B13C
:101C90004268013B10B4437213680321141D0172A2
:101CA0001A024460026010BC180E70470368013AC3
:101CB00002721A020260180E7047B020704700BF0F
:101CC00000B585B003AA0023009219460C22FFF745
:101CD000EBFB039805B05DF804FB00BFF0E700BF25
:101CE0002DE9F043054685B00E464FF0000830461A
:101CF000FFF7CAFFB028044600F0B280070620D5DF
:101D000000F0F003802B4DD0902B36D0A02B60D06C
:101D1000B02B74D0C02B00F08B8000F0F803D02BD8
:101D20000BD100F00702013242F400220523012109
:101D30002846FFF797FD0028D9D0092005B0BDE857
:101D4000F0830DF10C09002319468700CDF80090AF
:101D50000D222846FFF7A8FBFFB2039BCDF80090A9
:101D6000043760064CBFDF1BFF18002319460D2205
:101D700028460397FFF7BCFBB9E700F00D030D2BD6
:101D8000DBD003AF002300F00F021946009728466E
:101D9000FFF78AFB0023009719460D222846FFF71C
:101DA000A7FBA4E73046FFF76FFF24022043B0F5FE
:101DB000004FC2D004010023A2B219462846FFF703
:101DC00051FD0028B9D114F4004F18BF4FF001089D
:101DD0008DE7C24302F007034FF47F621A41010707
:101DE00002F47F624FF0000348BF42F4804219467C
:101DF0002846FFF737FD00283FF479AF9DE7B1286B
:101E000033D0B22800F08B80B32839D000F0FC0327
:101E1000B42B92D000F007020132012342F40022D9
:101E200019462846FFF71EFD00283FF460AF84E7FF
:101E3000C62842D0C7284CD000F0F803C02B5BD096
:101E4000C82860D0C9287FF478AF3046FFF71CFF60
:101E5000020300F00F0002F470220130024365E734
:101E6000B8F1000F18D0002068E73046FFF70CFFEC
:101E7000024600283FF461AF10F0F003D0D05CE7D9
:101E80003046FFF701FF010300F00F0001F470215D
:101E9000421C01230A43C3E703AC43460E224146DA
:101EA00000942846FFF700FB0094284643460F2283
:101EB0004146FFF71DFB404640E73046FFF7E4FE92
:101EC000010300F00F0001F47021421C03230A43B8
:101ED000A6E73046FFF7D8FE024600283FF42DAFB4
:101EE00010F0F0037FF429AF04212846FFF7BAFC75
:101EF00000283FF4FCAE20E700F00F02013203237C
:101F000042F420228CE73046FFF7BEFE00F0F002DC
:101F100000F00F031032013343EA023206E70023D8
:101F20000DF10C090D221946CDF800902846FFF757
:101F3000BBFA3046FFF7A8FE02064FF002070CD5A9
:101F4000039B00F07F00B840034430460393FFF743
:101F50009BFE030607F10707F2D4039BCDF8009020
:101F600000F07F0403F50172BC40002314441946BD
:101F70000D2228460394FFF7BBFAB8E610B5C26CF1
:101F800084B0536803248DF80C401B0202F108044E
:101F90000846D279019301A902948DF80D20FFF72C
:101FA0009FFE04B010BD00BF08B5FFF797FE806C20
:101FB00008BD00BF08B5FFF791FEC06CC3790233BE
:101FC00000EB830008BD00BF704700BF80B500AFC5
:101FD0000E4B1B680D4A43F4007313600B4B1B68D8
:101FE0000A4A43F480631360084B1B68074A43F4B2
:101FF00080731360032000F02BF9002000F008F834
:1020000003F0B4F80023184680BD00BF003C024036
:1020100080B582B000AF7860124B1A68124B1B7803
:1020200019464FF47A73B3FBF1F3B2FBF3F318469E
:1020300000F035F90346002B01D001230EE07B6848
:102040000F2B0AD8002279684FF0FF3000F00BF90F
:10205000064A7B681360002300E001231846083716
:10206000BD4680BD100000200800002004000020B4
:1020700080B400AF054B1B781A46054B1B68134410
:10208000034A136000BFBD4680BC704708000020B3
:10209000F802002080B400AF024B1B681846BD4612
:1020A00080BC7047F802002080B584B000AF786033
:1020B000FFF7F0FFB8607B68FB60FB68B3F1FF3FA0
:1020C00005D00A4B1B781A46FB681344FB6000BF1F
:1020D000FFF7E0FF0246BB68D31AFA689A42F7D8C6
:1020E00000BF00BF1037BD4680BD00BF0800002004
:1020F00080B485B000AF78607B6803F00703FB60B5
:102100000C4BDB68BB60BA684FF6FF031340BB6043
:10211000FB681A02BB68134343F0BF6343F4003308
:10212000BB60044ABB68D36000BF1437BD4680BCA7
:10213000704700BF00ED00E080B400AF044BDB68E7
:102140001B0A03F007031846BD4680BC704700BF5A
:1021500000ED00E080B483B000AF03463960FB714E
:1021600097F90730002B0ADB3B68DAB20C4997F984
:1021700007301201D2B20B4483F800230AE03B6817
:10218000DAB20849FB7903F00F03043B1201D2B223
:102190000B441A7600BF0C37BD4680BC704700BFA9
:1021A00000E100E000ED00E080B489B000AFF8602D
:1021B000B9607A60FB6803F00703FB61FB69C3F158
:1021C0000703042B28BF0423BB61FB690433062BE0
:1021D00002D9FB69033B00E000237B614FF0FF3233
:1021E000BB6902FA03F3DA43BB681A407B699A4081
:1021F0004FF0FF317B6901FA03F3D9437B680B4051
:10220000134318462437BD4680BC704780B582B062
:1022100000AF78607B68013BB3F1807F01D301237D
:102220000FE00A4A7B68013B53600F214FF0FF30FB
:10223000FFF790FF054B00229A60044B07221A60BB
:10224000002318460837BD4680BD00BF10E000E0FF
:1022500080B582B000AF78607868FFF749FF00BFB3
:102260000837BD4680BD80B586B000AF0346B96073
:102270007A60FB7300237B61FFF75EFF78617A6809
:10228000B9687869FFF790FF024697F90F30114659
:102290001846FFF75FFF00BF1837BD4680BD80B509
:1022A00082B000AF78607868FFF7B0FF0346184649
:1022B0000837BD4680BD000080B489B000AF7860AB
:1022C000396000237B6100233B610023BB61002355
:1022D000FB6159E10122FB6902FA03F37B613B6870
:1022E0001B687A6913403B613A697B699A4240F006
:1022F00048813B685B68022B03D03B685B68122B0C
:1023000023D1FB69DA087B68083253F82230BB61BD
:10231000FB6903F007039B000F2202FA03F3DB4380
:10232000BA691340BB613B681A69FB6903F0070394
:102330009B0002FA03F3BA691343BB61FB69DA0835
:102340007B680832B96943F822107B681B68BB615F
:10235000FB695B00032202FA03F3DB43BA69134013
:10236000BB613B685B6803F00302FB695B0002FA38
:1023700003F3BA691343BB617B68BA691A603B68AF
:102380005B68012B0BD03B685B68022B07D03B6876
:102390005B68112B03D03B685B68122B30D17B68E4
:1023A0009B68BB61FB695B00032202FA03F3DB431A
:1023B000BA691340BB613B68DA68FB695B0002FAEB
:1023C00003F3BA691343BB617B68BA699A607B689F
:1023D0005B68BB610122FB6902FA03F3DB43BA6964
:1023E0001340BB613B685B681B0903F00102FB699A
:1023F00002FA03F3BA691343BB617B68BA695A6096
:102400007B68DB68BB61FB695B00032202FA03F3B4
:10241000DB43BA691340BB613B689A68FB695B00A8
:1024200002FA03F3BA691343BB617B68BA69DA60E5
:102430003B685B6803F08053002B00F0A280002310
:10244000FB60564B5B6C554A43F480435364534BDB
:102450005B6C03F48043FB60FB68514AFB699B089B
:10246000023352F82330BB61FB6903F003039B0086
:102470000F2202FA03F3DB43BA691340BB617B68A6
:10248000484A934219D07B68474A934213D07B68ED
:10249000464A93420DD07B68454A934207D07B68F9
:1024A000444A934201D1042308E0072306E00323B2
:1024B00004E0022302E0012300E00023FA6902F0B5
:1024C000030292009340BA691343BB613449FB692C
:1024D0009B080233BA6941F82320374B1B68BB6164
:1024E0003B69DB43BA691340BB613B685B6803F43B
:1024F0008033002B03D0BA693B691343BB612E4A7A
:10250000BB6913602C4B5B68BB613B69DB43BA69F9
:102510001340BB613B685B6803F40033002B03D0BE
:10252000BA693B691343BB61234ABB695360224BC1
:102530009B68BB613B69DB43BA691340BB613B6885
:102540005B6803F48013002B03D0BA693B69134323
:10255000BB61194ABB699360174BDB68BB613B6980
:10256000DB43BA691340BB613B685B6803F400134B
:10257000002B03D0BA693B691343BB610E4ABB69A8
:10258000D360FB690133FB61FB690F2B7FF6A2AEC1
:1025900000BF00BF2437BD4680BC704700380240F2
:1025A00000380140000002400004024000080240E0
:1025B000000C024000100240003C014080B483B097
:1025C00000AF78600B467B8013467B707B78002BD6
:1025D00003D07A887B689A6103E07B881A047B6861
:1025E0009A6100BF0C37BD4680BC704780B483B091
:1025F00000AF78600B467B807B685A697B881A4005
:102600007B889A4204D17B881A047B689A6102E035
:102610007A887B689A6100BF0C37BD4680BC7047E2
:1026200080B586B000AF78607B68002B01D10123B4
:102630002DE27B681B6803F00103002B75D0A34BD0
:102640009B6803F00C03042B0CD0A04B9B6803F099
:102650000C03082B12D19D4B5B6803F48003B3F588
:10266000800F0BD1994B1B6803F40033002B5BD018
:102670007B685B68002B57D1012308E27B685B68AD
:10268000B3F5803F06D1914B1B68904A43F48033E9
:1026900013601DE07B685B68B3F5A02F0CD18B4BFA
:1026A0001B688A4A43F480231360884B1B68874A5F
:1026B00043F4803313600BE0844B1B68834A23F49C
:1026C00080331360814B1B68804A23F4802313609E
:1026D0007B685B68002B13D0FFF7DCFC386108E0F7
:1026E000FFF7D8FC02463B69D31A642B01D90323B8
:1026F000CDE1764B1B6803F40033002BF0D014E0DF
:10270000FFF7C8FC386108E0FFF7C4FC02463B69EC
:10271000D31A642B01D90323B9E16C4B1B6803F472
:102720000033002BF0D100E000BF7B681B6803F092
:102730000203002B63D0654B9B6803F00C03002B56
:102740000BD0624B9B6803F00C03082B1CD15F4B32
:102750005B6803F48003002B16D15C4B1B6803F00D
:102760000203002B05D07B68DB68012B01D001231D
:102770008DE1564B1B6823F0F8027B681B69DB0078
:10278000524913430B603AE07B68DB68002B20D092
:102790004F4B01221A60FFF77DFC386108E0FFF71C
:1027A00079FC02463B69D31A022B01D903236EE15F
:1027B000464B1B6803F00203002BF0D0434B1B6811
:1027C00023F0F8027B681B69DB00404913430B6070
:1027D00015E03F4B00221A60FFF75CFC386108E00F
:1027E000FFF758FC02463B69D31A022B01D9032399
:1027F0004DE1364B1B6803F00203002BF0D17B68E0
:102800001B6803F00803002B30D07B685B69002B4A
:1028100016D0304B01221A60FFF73CFC386108E00B
:10282000FFF738FC02463B69D31A022B01D9032378
:102830002DE1264B5B6F03F00203002BF0D015E077
:10284000244B00221A60FFF725FC386108E0FFF7EF
:1028500021FC02463B69D31A022B01D9032316E15E
:102860001A4B5B6F03F00203002BF0D17B681B68EF
:1028700003F00403002B00F0A0800023FB75134B32
:102880001B6C03F08053002B0FD10023FB600F4B18
:102890001B6C0E4A43F0805313640C4B1B6C03F00B
:1028A0008053FB60FB680123FB750B4B1B6803F433
:1028B0008073002B21D1084B1B68074A43F48073B7
:1028C0001360FFF7E7FB386111E000BF00380240FA
:1028D00000004742800E474200700040FFF7DAFBDD
:1028E00002463B69D31A022B01D90323CFE06A4B7E
:1028F0001B6803F48073002BF0D07B689B68012B6E
:1029000006D1664B1B6F654A43F0010313671CE059
:102910007B689B68052B0CD1604B1B6F5F4A43F0B3
:10292000040313675D4B1B6F5C4A43F0010313679D
:102930000BE05A4B1B6F594A23F001031367574BA7
:102940001B6F564A23F0040313677B689B68002BB8
:1029500015D0FFF79FFB38610AE0FFF79BFB0246AB
:102960003B69D31A41F28832934201D903238EE0A6
:102970004A4B1B6F03F00203002BEED014E0FFF76D
:1029800089FB38610AE0FFF785FB02463B69D31AF1
:1029900041F28832934201D9032378E03F4B1B6F09
:1029A00003F00203002BEED1FB7D012B05D13B4B45
:1029B0001B6C3A4A23F0805313647B689B69002B9D
:1029C00064D0364B9B6803F00C03082B5CD07B680B
:1029D0009B69022B41D1324B00221A60FFF75AFB50
:1029E000386108E0FFF756FB02463B69D31A022B19
:1029F00001D903234BE0294B1B6803F00073002B24
:102A0000F0D17B68DA697B681B6A1A437B685B6A72
:102A10009B011A437B689B6A5B08013B1B041A43BA
:102A20007B68DB6A1B061D4913434B601C4B01226C
:102A30001A60FFF72FFB386108E0FFF72BFB024617
:102A40003B69D31A022B01D9032320E0134B1B68E7
:102A500003F00073002BF0D018E0114B00221A6035
:102A6000FFF718FB386108E0FFF714FB02463B69EB
:102A7000D31A022B01D9032309E0084B1B6803F08A
:102A80000073002BF0D101E0012300E00023184681
:102A90001837BD4680BD00BF0070004000380240BE
:102AA0006000474280B584B000AF786039607B68D1
:102AB000002B01D10123CAE0674B1B6803F00F0311
:102AC0003A689A420CD9644B3A68D2B21A70624B97
:102AD0001B6803F00F033A689A4201D00123B6E065
:102AE0007B681B6803F00203002B20D07B681B6807
:102AF00003F00403002B05D0584B9B68574A43F45E
:102B0000E05393607B681B6803F00803002B05D03B
:102B1000524B9B68514A43F4604393604F4B9B6810
:102B200023F0F0027B689B684C4913438B607B6801
:102B30001B6803F00103002B44D07B685B68012B0A
:102B400007D1464B1B6803F40033002B19D1012336
:102B50007DE07B685B68022B03D07B685B68032B9E
:102B600007D13E4B1B6803F00073002B09D10123F2
:102B70006DE03A4B1B6803F00203002B01D10123E7
:102B800065E0364B9B6823F003027B685B68334942
:102B900013438B60FFF77EFAF8600AE0FFF77AFADA
:102BA0000246FB68D31A41F28832934201D90323CB
:102BB0004DE02A4B9B6803F00C027B685B689B002E
:102BC0009A42EBD1244B1B6803F00F033A689A42F8
:102BD0000CD2214B3A68D2B21A701F4B1B6803F01B
:102BE0000F033A689A4201D0012330E07B681B68EA
:102BF00003F00403002B08D0184B9B6823F4E05229
:102C00007B68DB68154913438B607B681B6803F0A6
:102C10000803002B09D0114B9B6823F460427B68AA
:102C20001B69DB000D4913438B6000F01DF8024661
:102C30000A4B9B681B0903F00F030949CB5C22FA7E
:102C400003F3084A13600020FFF7E2F90023184657
:102C50001037BD4680BD00BF003C02400038024036
:102C6000287D0208100000202DE9B04384B000AF99
:102C700000237B600023FB6000233B600023BB60DC
:102C8000674B9B6803F00C03082B0DD0082B00F258
:102C9000BD80002B02D0042B03D0B7E0614BBB609A
:102CA000B7E0614BBB60B4E05D4B5B6803F03F0392
:102CB0007B605B4B5B6803F48003002B4DD0584B6B
:102CC0005B689B091A464FF0000340F2FF104FF07B
:102CD000000102EA000803EA0109404649464FF0B4
:102CE00000024FF000034B0143EAD063420110465B
:102CF0001946B0EB080061EB09014FF000024FF0FC
:102D000000038B0143EA90638201121A63EB010313
:102D10004FF000004FF00001D90041EA5271D0009D
:102D200002460B4612EB080243EB09034FF000008A
:102D30004FF00001590241EAD251500202460B46BF
:102D4000104619467B681A464FF00003FEF73AF822
:102D500002460B461346FB604AE0314B5B689B0919
:102D60001A464FF0000340F2FF104FF0000102EA54
:102D7000000403EA0105204629464FF000024FF007
:102D800000034B0143EAD063420110461946001B81
:102D900061EB05014FF000024FF000038B0143EAA5
:102DA00090638201121A63EB01034FF000004FF0B1
:102DB0000001D90041EA5271D00002460B461219B7
:102DC00045EB03034FF000004FF00001990241EA88
:102DD0009251900202460B46104619467B681A46ED
:102DE0004FF00003FDF7EEFF02460B461346FB6073
:102DF0000B4B5B681B0C03F0030301335B003B6070
:102E0000FA683B68B2FBF3F3BB6002E0054BBB60C2
:102E100000BFBB6818461037BD46BDE8B08300BF91
:102E2000003802400024F40000127A0080B400AFA1
:102E3000024B1B681846BD4680BC7047100000203E
:102E400080B500AFFFF7F2FF0246054B9B689B0A77
:102E500003F007030349CB5C22FA03F3184680BD55
:102E600000380240387D020880B500AFFFF7DEFF72
:102E70000246054B9B685B0B03F007030349CB5CE1
:102E800022FA03F3184680BD00380240387D02085C
:102E900080B582B000AF78607B68002B01D1012340
:102EA0003FE07B6893F83930DBB2002B06D17B68BA
:102EB000002283F83820786802F07EF97B682422AB
:102EC00083F839207B681B68DA687B681B6822F40A
:102ED0000052DA60786800F00BF97B681B681A69A9
:102EE0007B681B6822F490421A617B681B685A69F0
:102EF0007B681B6822F02A025A617B681B68DA68CB
:102F00007B681B6842F40052DA607B680022DA6357
:102F10007B68202283F839207B68202283F83A20BE
:102F2000002318460837BD4680BD80B588B002AF83
:102F3000F860B9603B601346FB8000237B61FB684F
:102F400093F83930DBB2202B40F08380BB68002B34
:102F500002D0FB88002B01D101237BE0FB6893F8B2
:102F60003830012B01D1022374E0FB68012283F881
:102F70003820FB680022DA63FB68212283F83920BD
:102F8000FFF788F87861FB68FA889A84FB68FA880A
:102F9000DA8442E0FB68DB8C9BB2013B9AB2FB68AF
:102FA000DA84FB689B68B3F5805F22D13B680093AD
:102FB0007B6900228021F86800F050F80346002B5E
:102FC00001D0032346E0BB683B613B691B881A467E
:102FD000FB681B68C2F308025A60FB681B69002B80
:102FE00003D1BB680233BB6017E0BB680133BB6031
:102FF00013E03B6800937B6900228021F86800F0B1
:103000002DF80346002B01D0032323E0BB685A1C94
:10301000BA601A78FB681B685A60FB68DB8C9BB24D
:10302000002BB7D13B6800937B6900224021F868F0
:1030300000F014F80346002B01D003230AE0FB68DC
:10304000202283F83920FB68002283F838200023EF
:1030500000E0022318461837BD4680BD80B584B015
:1030600000AFF860B9603B601346FB712CE0BB69B0
:10307000B3F1FF3F28D0BB69002B07D0FFF70AF858
:1030800002463B68D31ABA699A421DD2FB681B6894
:10309000DA68FB681B6822F4D072DA60FB681B6890
:1030A0005A69FB681B6822F001025A61FB68202202
:1030B00083F83920FB68202283F83A20FB6800223D
:1030C00083F8382003230FE0FB681B681A68BB688D
:1030D0001340BA689A420CBF01230023DBB21A46A0
:1030E000FB799A42C3D0002318461037BD4680BDF5
:1030F000B0B584B000AF78607B681B681B6923F4AF
:1031000040517B68DA687B681B680A431A617B68F8
:103110009A687B681B691A437B685B691A437B6802
:10312000DB691343FB607B681B68DB6823F4164391
:1031300023F00C037A681268F9680B43D3607B684C
:103140001B685B6923F440717B689A697B681B6824
:103150000A435A617B68DB69B3F5004F40F0E480B5
:103160007B681B68AB4A934204D07B681B68AA4A01
:1031700093426CD1FFF778FE024613469B0013443E
:103180009A001A447B685B685B00B2FBF3F3A34AC6
:10319000A2FB03235B091C01FFF766FE02461346F0
:1031A0009B0013449A001A447B685B685B00B2FB87
:1031B000F3F5FFF759FE024613469B0013449A00AD
:1031C0001A447B685B685B00B2FBF3F3934AA2FB93
:1031D00003235B09642202FB03F3EB1ADB003233A7
:1031E0008E4AA2FB03235B095B0003F4F8731C44C3
:1031F000FFF73AFE024613469B0013449A001A4416
:103200007B685B685B00B2FBF3F5FFF72DFE0246BF
:1032100013469B0013449A001A447B685B685B006A
:10322000B2FBF3F37D4AA2FB03235B09642202FB9A
:1032300003F3EB1ADB003233784AA2FB03235B096A
:1032400003F007027B681B6822449A6054E1FFF791
:10325000F7FD024613469B0013449A001A447B680C
:103260005B685B00B2FBF3F36C4AA2FB03235B09D0
:103270001C01FFF7E5FD024613469B0013449A002C
:103280001A447B685B685B00B2FBF3F5FFF7D8FD7F
:10329000024613469B0013449A001A447B685B68FD
:1032A0005B00B2FBF3F35D4AA2FB03235B096422DC
:1032B00002FB03F3EB1ADB003233584AA2FB032371
:1032C0005B095B0003F4F8731C44FFF7B9FD024689
:1032D00013469B0013449A001A447B685B685B00AA
:1032E000B2FBF3F5FFF7ACFD024613469B00134417
:1032F0009A001A447B685B685B00B2FBF3F3474AB1
:10330000A2FB03235B09642202FB03F3EB1ADB003D
:103310003233424AA2FB03235B0903F007027B68B6
:103320001B6822449A60E7E07B681B68394A934235
:1033300004D07B681B68384A934271D1FFF794FD33
:10334000024613469B0013449A001A447B685B684C
:103350009B00B2FBF3F3314AA2FB03235B091C0180
:10336000FFF782FD024613469B0013449A001A445D
:103370007B685B689B00B2FBF3F5FFF775FD0246C7
:1033800013469B0013449A001A447B685B689B00B9
:10339000B2FBF3F3214AA2FB03235B09642202FB85
:1033A00003F3EB1A1B0132331C4AA2FB03235B0914
:1033B00003F0F0031C44FFF757FD024613469B0041
:1033C00013449A001A447B685B689B00B2FBF3F5D8
:1033D000FFF74AFD024613469B0013449A001A4425
:1033E0007B685B689B00B2FBF3F30C4AA2FB0323F0
:1033F0005B09642202FB03F3EB1A1B013233074A19
:10340000A2FB03235B0903F00F027B681B682244C5
:103410009A6071E000100140001401401F85EB51DB
:10342000FFF70EFD024613469B0013449A001A4410
:103430007B685B689B00B2FBF3F3314AA2FB03237A
:103440005B091C01FFF7FCFC024613469B0013447A
:103450009A001A447B685B689B00B2FBF3F5FFF7A8
:10346000EFFC024613469B0013449A001A447B6803
:103470005B689B00B2FBF3F3214AA2FB03235B09C9
:10348000642202FB03F3EB1A1B0132331C4AA2FB3A
:1034900003235B0903F0F0031C44FFF7D1FC024651
:1034A00013469B0013449A001A447B685B689B0098
:1034B000B2FBF3F5FFF7C4FC024613469B0013442E
:1034C0009A001A447B685B689B00B2FBF3F30C4ADA
:1034D000A2FB03235B09642202FB03F3EB1A1B012B
:1034E0003233074AA2FB03235B0903F00F027B6818
:1034F0001B6822449A60FFE700BF1037BD46B0BD8D
:103500001F85EB51B0B584B000AF786039607B683F
:103510005A683B685B689A4205D17B689A683B6849
:103520009B689A4241D04349434809F089FD0246CD
:103530007B685B681946104609F0E0FD03463F4989
:10354000184609F07DFD02463B685B681946104647
:1035500009F0D4FD03463A49184609F071FD0246C8
:103560007B689B681946104609F0C8FD034635493B
:10357000184609F065FD02463B689B6819461046EF
:1035800009F0BCFD03463049184609F0F3FB08205A
:1035900002F06AF803461C462C49204602F0FEFD64
:1035A0002B4A2C49204602F04FFC0023FB607B682D
:1035B0005B68FA689A4238D20023BB607B689B68DC
:1035C000BA689A4228D27B68DA68FB689B00134489
:1035D0001A68BB68DB001344D3E900013B68DA6872
:1035E000FB689B0013441A68BB68DB001344D3E9F3
:1035F00000237C68E568FC68A4002C442568BC684E
:10360000E4002C44FCF754FE02460B46C4E90023B8
:10361000BB680133BB60D1E7FB680133FB60C6E7E1
:10362000204602F037F802F059F800BF1037BD46C7
:10363000B0BD00BFA87A020800060020B07A0208D8
:10364000BC7A0208C87A020859CE0008D87A020863
:10365000496100088C7E0208B0B584B000AF786084
:1036600039607B685A683B685B689A4205D17B6821
:103670009A683B689B689A420DD0082001F0F4FFDD
:1036800003461C462649204602F088FD254A264965
:10369000204602F0D9FB0023FB607B685B68FA6878
:1036A0009A4238D20023BB607B689B68BA689A4212
:1036B00028D27B68DA68FB689B0013441A68BB68F1
:1036C000DB001344D3E900013B68DA68FB689B0028
:1036D00013441A68BB68DB001344D3E900237C68F9
:1036E000E568FC68A4002C442568BC68E4002C4410
:1036F000FCF7DCFD02460B46C4E90023BB6801333E
:10370000BB60D1E7FB680133FB60C6E7204601F0F0
:10371000C1FF01F0E3FF00BF1037BD46B0BD00BFE1
:10372000007B0208496100088C7E0208F0B589B070
:1037300000AFF860B9607A60BB689A687B685B68C4
:103740009A420DD0082001F08FFF03461C463B49EA
:10375000204602F023FD3A4A3A49204602F074FB23
:10376000BB6859687B689B681A46F86800F00AF9DC
:103770000023FB61FB685B68FA699A4258D2002318
:10378000BB61FB689B68BA699A4248D200237B619F
:10379000BB689B687A699A423DD2FB68DA68FB692C
:1037A0009B0013441A68BB69DB001344D3E900454E
:1037B000BB68DA68FB699B0013441A687B69DB000D
:1037C0001344D3E900017B68DA687B699B001344EA
:1037D0001A68BB69DB001344D3E90023FCF71EFF22
:1037E00002460B4610461946FB68DA68FB699B00E7
:1037F00013441A68BB69DB00D61802460B46204604
:103800002946FCF755FD02460B46C6E900237B69B5
:1038100001337B61BCE7BB690133BB61B1E7FB6985
:103820000133FB61A6E7204601F034FF01F056FFAB
:1038300000BFF8682437BD46F0BD00BF287B0208F2
:10384000496100088C7E0208B0B584B000AF786092
:1038500039600023FB607B685B68FA689A422BD270
:103860000023BB607B689B68BA689A4220D27B6861
:10387000DA68FB689B0013441A68BB68DB001344DA
:10388000D3E900013B68D3E900237C68E568FC6864
:10389000A4002C442568BC68E4002C44FCF7BEFE60
:1038A00002460B46C4E90023BB680133BB60D9E77D
:1038B000FB680133FB60CEE700BF1037BD46B0BDEB
:1038C000B0B584B000AF786039603B68D3E90001DF
:1038D0004FF000024FF00003FDF708F90346002BFC
:1038E0000DD0082001F0C0FE03461C4622492046A8
:1038F00002F054FC214A2249204602F0A5FA002396
:10390000FB607B685B68FA689A4230D20023BB6038
:103910007B689B68BA689A4220D27B68DA68FB6849
:103920009B0013441A68BB68DB001344D3E9000111
:103930003B68D3E900237C68E568FC68A4002C445C
:103940002568BC68E4002C44FCF792FF02460B4655
:10395000C4E90023BB680133BB60D9E7FB680133CE
:10396000FB60CEE7204601F095FE01F0B7FE00BFF8
:103970001037BD46B0BD00BF507B0208496100084A
:103980008C7E020890B589B000AFF860B9607A60AB
:103990002E4AFB681A60FB68BA685A60FB687A684E
:1039A0009A60BB686FF0604293420AD29B0018464F
:1039B00002F064FA03461A46FB68DA600023FB61F2
:1039C00001E001F046FFFA69BB689A4215D27B68B4
:1039D000B3F1805F01D2D90001E001F03AFFFB684A
:1039E000DA68FB699B00D418084602F047FA0346E0
:1039F0002360FB690133FB61E5E70023BB61BA6922
:103A0000BB689A421CD200237B617A697B689A4228
:103A100012D2FB68DA68BB699B0013441A687B69A1
:103A2000DB00D1184FF000024FF00003C1E9002382
:103A30007B6901337B61E8E7BB690133BB61DEE78A
:103A4000FB6818462437BD4690BD00BFF47C0208D1
:103A500090B589B000AFF860B9607A603B60324AD7
:103A6000FB681A60FB68BA685A60FB687A689A60FB
:103A7000BB686FF0604293420AD29B00184602F086
:103A8000FDF903461A46FB68DA600023FB6101E09A
:103A900001F0DFFEFA69BB689A4215D27B68B3F188
:103AA000805F01D2D90001E001F0D3FEFB68DA6843
:103AB000FB699B00D418084602F0E0F90346236036
:103AC000FB690133FB61E5E70023BB61BA69BB68B1
:103AD0009A4223D200237B617A697B689A4219D289
:103AE000BB697A6802FB03F27B691344DB003A6826
:103AF0001344FA68D168BA6992000A4411687A6975
:103B0000D2001144D3E90023C1E900237B690133CA
:103B10007B61E1E7BB690133BB61D7E7FB6818460E
:103B20002437BD4690BD00BFF47C020890B587B035
:103B300000AF78603960354A7B681A603B685A6824
:103B40007B685A603B689A687B689A607B685B68B0
:103B50006FF0604293420AD29B00184602F08EF941
:103B600003461A467B68DA6000237B6101E001F0BE
:103B700070FE7B685B687A699A4216D27B689B68A4
:103B8000B3F1805F01D2D90001E001F062FE7B68F1
:103B9000DA687B699B00D418084602F06FF9034687
:103BA00023607B6901337B61E3E700233B617B6832
:103BB0005B683A699A4224D20023FB607B689B6869
:103BC000FA689A4219D23B68DA683B699B00134451
:103BD0001A68FB68DB0013447A68D1683A6992007E
:103BE0000A441168FA68D2001144D3E90023C1E9FC
:103BF0000023FB680133FB60E0E73B6901333B6175
:103C0000D5E77B6818461C37BD4690BDF47C02089A
:103C100080B584B000AF7860164A7B681A600023D4
:103C2000FB607B685B68FA689A4214D27B68DA684A
:103C3000FB689B0013441B68002B08D07B68DA6884
:103C4000FB689B0013441B68184601F0AFFCFB683F
:103C50000133FB60E5E77B68DB68002B04D07B6801
:103C6000DB68184601F0A2FC7B6818461037BD4699
:103C700080BD00BFF47C020880B485B000AF7860DE
:103C800039600023FB607B685B68FA689A4224D243
:103C90000023BB607B689B68BA689A4219D23B6874
:103CA000DA68FB689B0013441A68BB68DB001344A6
:103CB0007A68D168FA6892000A441168BA68D2003A
:103CC0001144D3E90023C1E90023BB680133BB6081
:103CD000E0E7FB680133FB60D5E77B6818461437E3
:103CE000BD4680BC704780B485B000AFF860B96055
:103CF0007A60FB685A68BB681A60FB689A687B68E0
:103D00001A6000BF1437BD4680BC704790B585B0BF
:103D100000AFF860B9607A60FB685B68BA689A4285
:103D200004D2FB689B687A689A420DD3082001F0A0
:103D30009BFC03461C460E49204602F02FFA0D4A12
:103D40000D49204602F080F8FB68DA68BB689B00EA
:103D500013441A687B68DB00134404E0204601F03A
:103D600099FC01F0BBFC18461437BD4690BD00BF5E
:103D7000687B0208496100088C7E020890B583B018
:103D800000AF786039607B685B683A689A420DD30F
:103D9000082001F069FC03461C460C49204602F04D
:103DA000FDF90B4A0B49204602F04EF87B68DA68B1
:103DB0003B689B0013441B6804E0204601F06AFC4A
:103DC00001F08CFC18460C37BD4690BD947B020870
:103DD000496100088C7E020880B584B000AFF860AD
:103DE000B9607A60B968F868FFF7A0FE7968F8688A
:103DF000FFF788FB04E0F868FFF70AFF01F06EFCAC
:103E0000F8681037BD4680BD80B584B000AFF8605B
:103E1000B9607A60B968F868FFF788FE7968F86871
:103E2000FFF71AFC04E0F868FFF7F2FE01F056FC19
:103E3000F8681037BD4680BD80B582B000AF7860AD
:103E4000396039687868FFF707FC7B6818460837DF
:103E5000BD4680BD80B584B000AFF860B9607A60BF
:103E6000FB687A68B9681846FFF760FCF868103795
:103E7000BD4680BD80B584B000AFF860B9607A609F
:103E8000B968F868FFF752FE7968F868FFF7DCFC5C
:103E900000BFF8681037BD4680BD80B584B000AF64
:103EA000F860B9607A60B968F868FFF73FFE796832
:103EB000F868FFF705FD04E0F868FFF7A9FE01F0D8
:103EC0000DFCF8681037BD4680BD80B584B000AFEA
:103ED000786039603B6899683B685B681A46786827
:103EE000FFF750FD0023FB603B685B68FA689A426D
:103EF00024D20023BB603B689B68BA689A4219D2FF
:103F00003B68DA68FB689B0013441A68BB68DB00F7
:103F100013447A68D168BA6892000A441168FA6852
:103F2000D2001144D3E90023C1E90023BB68013367
:103F3000BB60E0E7FB680133FB60D5E700BF786852
:103F40001037BD4680BD000080B584B000AFF8607A
:103F5000B9607A60FB680122B9681846FFF712FD64
:103F6000034AFB681A60FB6818461037BD4680BDDF
:103F7000E47C020880B584B000AFF860B9607A6074
:103F8000F8687B68BA680121FFF762FD034AFB68A5
:103F90001A60FB6818461037BD4680BDE47C0208F5
:103FA00080B584B000AFF860B9607A603B60F868B3
:103FB0003B680122B968FFF74BFD044AFB681A60B1
:103FC000FB6818461037BD4680BD00BFE47C020880
:103FD00080B586B000AF7860396007F1080207F15C
:103FE0000C0319463868FFF77EFEFB68012B18D1D9
:103FF00000237B61BB687A699A422BD27A690021DF
:104000003868FFF783FE7B68DB681A687B69DB0032
:10401000D118D0E90023C1E900237B6901337B611A
:10402000E8E700233B61FB683A699A4212D200221A
:1040300039693868FFF76AFE7B68DA683B699B007C
:1040400013441968D0E90023C1E900233B69013317
:104050003B61E8E77B6818461837BD4680BD000025
:1040600080B582B000AF786039607B68012B0CD1DD
:104070003B684FF6FF72934207D1064801F09EFF5E
:10408000054A0649034801F016FA00BF0837BD4645
:1040900080BD00BFFC02002000000020D5600008A9
:1040A00080B500AF4FF6FF710120FFF7D9FF80BD4B
:1040B00080B582B000AF7860054A7B681A607B6883
:1040C0001846FFF7A5FD7B6818460837BD4680BD3A
:1040D000E47C020890B5E9B000AF07F10C04206061
:1040E00007F108000160391D0A603A46136007F1C4
:1040F0004003032203211846FFF744FC07F1300375
:10410000032203211846FFF73DFC07F1200301229B
:1041100003211846FFF718FF07F1100301220321BE
:104120001846FFF711FF3B1D196807F108031A68CD
:1041300007F150031846FFF78DFE07F15003C84AF8
:104140000021184690470446C54A07F14003002164
:10415000184690470146D4E90023C1E9002307F13E
:1041600050031846FFF754FD3B1D196807F1700016
:1041700007F10C031A68FFF76DFE07F108031A68D0
:1041800007F1600307F170011846FFF763FE07F1BE
:104190006003B34A0021184690470446B04A07F12D
:1041A00040030121184690470146D4E90023C1E9A4
:1041B000002307F160031846FFF72AFD07F170039B
:1041C0001846FFF725FDA64A07F1400300211846CF
:1041D00090470446A24A07F1400301211846904740
:1041E000034603F10801D4E90023C1E900233B1D84
:1041F000196807F1A00007F10C031A68FFF72AFEFF
:1042000007F1900007F10C0307F1A0011A68FFF70E
:1042100021FE07F108031A6807F1800307F19001F6
:104220001846FFF717FE07F180038D4A0021184654
:10423000904704468A4A07F14003022118469047F6
:104240000146D4E90023C1E9002307F180031846A1
:10425000FFF7DEFC07F190031846FFF7D9FC07F1E2
:10426000A0031846FFF7D4FC7D4A07F14003012163
:104270001846904704467A4A07F14003022118463F
:104280009047034603F10801D4E90023C1E9002364
:10429000734A07F140030121184690470446704ACB
:1042A00007F14003022118469047034603F110012D
:1042B000D4E90223C1E90023694A07F13003002150
:1042C0001846904701464FF00002664BC1E90023B3
:1042D000634A07F13003012118469047034603F172
:1042E00008014FF000025F4BC1E900235C4A07F16F
:1042F0003003022118469047034603F110014FF0A6
:104300000002584BC1E900233B1D196807F1C000AA
:1043100007F10C031A68FFF79DFD3B461A6807F189
:10432000B00307F1C0011846FFF794FD07F1B00391
:104330004B4A002118469047044607F120031B68AA
:1043400004331B6807F120020021104698470146FC
:10435000D4E90023C1E9002307F1B0031846FFF7B1
:1043600057FC07F1C0031846FFF752FC3B1D1968C4
:1043700007F1F00007F10C031A68FFF76BFD07F176
:10438000E00007F10C0307F1F0011A68FFF762FD86
:104390003B461A6807F1D00307F1E0011846FFF722
:1043A00059FD07F1D0032E4A0021184690470446D4
:1043B00007F120031B6804331B6807F12002012169
:1043C000104698470146D4E90023C1E9002307F1CC
:1043D000D0031846FFF71CFC07F1E0031846FFF76F
:1043E00017FC07F1F0031846FFF712FC3B1D196894
:1043F00007F5987007F10C031A68FFF72BFD07F516
:10440000907007F10C0307F598711A68FFF722FD09
:1044100007F5887007F10C0307F590711A68FFF72C
:1044200019FD3B461A6807F5807307F58871184631
:10443000FFF710FD07F58073094A002118469047E1
:10444000044607F120031B6804331B6807F12002B0
:104450000221104698470146D4E9002304E000BF3A
:104460007D3D00080000F03FC1E9002307F580739F
:104470001846FFF7CDFB07F588731846FFF7C8FB12
:1044800007F590731846FFF7C3FB07F598731846B6
:10449000FFF7BEFB07F110031B6804331B6807F12D
:1044A00010020021104698470146D7E96C23C1E964
:1044B000002307F110031B6804331B6807F1100287
:1044C0000121104698470146D7E96C23C1E9002332
:1044D00007F110031B6804331B6807F11002022167
:1044E000104698470146D7E96C23C1E90023D7F865
:1044F000B8311B681C6807F5B07307F1400211461C
:104500001846FFF7E2FC07F5A87307F1400207F52C
:10451000B0711846FFF79EFC07F5A07307F1300253
:1045200007F5A8711846FFF757FC07F5A073194661
:10453000D7F8B801A04707F5A0731846FFF768FB46
:1045400007F5A8731846FFF763FB07F5B073184625
:10455000FFF75EFBD7F8BC311B681C6807F5C0731A
:1045600007F1400211461846FFF7AFFC07F5C87384
:1045700007F1100207F120011846FFF745FC07F587
:10458000B87307F5C87207F5C0711846FFF762FCEB
:1045900007F5B8731946D7F8BC01A04707F5B873FB
:1045A0001846FFF735FB07F5C8731846FFF730FBD1
:1045B00007F5C0731846FFF72BFB002407F1100323
:1045C0001846FFF775FD07F120031846FFF770FD49
:1045D00007F130031846FFF71BFB07F140031846AD
:1045E000FFF716FB234696E007F150031846FFF746
:1045F0000FFB77E007F160031846FFF709FBFFE7C1
:1046000007F170031846FFF703FB6BE007F1800327
:104610001846FFF7FDFAFFE707F190031846FFF78A
:10462000F7FAFFE707F1A0031846FFF7F1FA59E0A0
:1046300007F1B0031846FFF7EBFAFFE707F1C003F5
:104640001846FFF7E5FA4DE007F1D0031846FFF7EB
:10465000DFFAFFE707F1E0031846FFF7D9FAFFE7B3
:1046600007F1F0031846FFF7D3FA3BE007F5807334
:104670001846FFF7CDFAFFE707F588731846FFF7EE
:10468000C7FAFFE707F590731846FFF7C1FAFFE78F
:1046900007F598731846FFF7BBFA23E007F5A073F8
:1046A0001846FFF7B5FAFFE707F5A8731846FFF7B6
:1046B000AFFAFFE707F5B0731846FFF7A9FA11E064
:1046C00007F5B8731846FFF7A3FAFFE707F5C873B5
:1046D0001846FFF79DFAFFE707F5C0731846FFF786
:1046E00097FAFFE707F110031846FFF7E1FCFFE731
:1046F00007F120031846FFF7DBFCFFE707F1300363
:104700001846FFF785FAFFE707F140031846FFF761
:104710007FFA00F0E3FF184607F5D277BD4690BD5B
:1047200090B599B000AFF860B9607A603B603B68C3
:1047300007F1240207F128011846FFF7D4FAB96AF5
:1047400007F1140301221846FFF7FEFB5A4C3A68A2
:1047500007F13C03F9681846FFF77CFB07F12C03CF
:1047600007F13C01BA681846FFF736FB07F12C0247
:1047700007F1140311461846A04707F12C03184609
:10478000FFF746FA07F13C031846FFF741FA3C6889
:1047900007F14C0307F1140107F170021846FFF707
:1047A00069FB07F14C0319462046FFF745FB07F16B
:1047B0004C031846FFF72CFA0023FB65BB6AFA6D21
:1047C0009A4254D23B681B6804331B683A68F96DFF
:1047D000104698470346D3E9000101231C464FF0D9
:1047E0000002364BFCF78CF90346002B01D1002365
:1047F0001C46E3B2002B0ED03B681B6804331B68D9
:104800003A68F96D1046984701464FF000022B4B6D
:10481000C1E9002327E03B681B6804331B683A6842
:10482000F96D104698470346D3E9000101231C4661
:104830004FF00002224BFCF781F90346002B01D117
:1048400000231C46E3B2002B0DD03B681B680433E9
:104850001B683A68F96D1046984701464FF0000210
:10486000174BC1E90023FB6D0133FB65A6E700246C
:1048700007F114031846FFF71BFC234618E007F165
:104880002C031846FFF7C4F9FFE707F13C0318466D
:10489000FFF7BEF905E007F14C031846FFF7B8F93A
:1048A000FFE707F114031846FFF702FC00F016FFBC
:1048B00018466437BD4690BDD13F000800002EC0A9
:1048C00000002E40000000002DE9F043ADF27C5DB9
:1048D00004AF07F10C03186007F1080319603B1DD2
:1048E0001A600323C7F85C354FF00002BE4B07F592
:1048F000AA61C1E90023B8A3D3E9002307F5A961A0
:10490000C1E9002307F58F6300221A605A609A609C
:10491000DA601A615A6107F58E6207F2744107F195
:104920000C031868FFF7DFF9D7F8741407F58C63E8
:1049300001221846FFF708FB07F58F6307F58A6029
:1049400001220321FFF72CFB07F5886303220321D3
:104950001846FFF717F807F586630122032118466A
:10496000FFF710F807F58463012201211846FFF7CD
:1049700009F807F58263012201211846FFF702F8C2
:104980000023C7F86435D7F86435632B00F234810F
:1049900007F58C6C3E1D07F1080107F10C0007F5C7
:1049A0008663039307F5886302934FF000028E4BF2
:1049B000CDE900236346326809680068FFF78AFB87
:1049C0000023C7F86035D7F86035632B00F2BC8050
:1049D00007F58A6C07F58C6607F5866107F5886030
:1049E0007FA3D3E90023CDE9002363463246FFF7D6
:1049F00097FE7E4E07F5846207F5826311461846DE
:104A0000B0477A4E07F59A6307F58A621146184651
:104A1000FFF75BFA07F5986307F5886207F59A6177
:104A20001846FFF717FA07F5966307F58A6207F548
:104A300098611846FFF70EFA4FF000024FF08043DE
:104A400007F59C61C1E9002307F5946307F59C62B3
:104A500007F596611846FFF720FA07F59F6307F5FB
:104A60008A6211461846FFF730FA07F59D6307F58D
:104A7000866207F59F611846FFF7ECF907F5926328
:104A800007F59D6207F594611846FFF7A5F907F54C
:104A9000926207F5846311461846B04707F59263A2
:104AA0001846FFF7B5F807F59D631846FFF7B0F80D
:104AB00007F59F631846FFF7ABF807F594631846B0
:104AC000FFF7A6F807F596631846FFF7A1F807F574
:104AD00098631846FFF79CF807F59A631846FFF7A6
:104AE00097F8434A07F5826300211846904703462A
:104AF000D3E900893E4A07F58463002118469047B0
:104B00000346D3E9002340464946FBF7CFFB024664
:104B10000B46144623F0004501231E462EA3D3E97D
:104B2000002320462946FBF7EBFF0346002B01D16B
:104B300000231E46F3B2002B05D1D7F860350133B0
:104B4000C7F860353FE700BF2A4B3B6007F5A3601D
:104B500007F58C6207F10C031968FFF77BF907F181
:104B600008031E6807F58A631B6804331B6807F592
:104B70008A62002110469847024607F5A563314630
:104B80001846FFF777F907F5A16307F5A56207F562
:104B9000A3611846FFF720F907F5A16207F58C63BA
:104BA000114618463B68984707F5A1631846FFF77A
:104BB0002FF807F5A5631846FFF72AF807F5A36352
:104BC0001846FFF725F8D7F864350133C7F8643580
:104BD000D9E600BFAFF300807B14AE47E17A843F93
:104BE0009A9999999999B93F00001040793C000829
:104BF0007D3D0008D13F000807F58A631B68043338
:104C00001B6807F58A620021104698470346D3E9DE
:104C100000453B1D196807F5A76307F58C62184628
:104C2000FFF718F907F5A763554A00211846904782
:104C30000346D3E9002307F11000CDE90023224603
:104C40002B4650491CF058F807F5A7631846FEF7A5
:104C5000DFFF4D481BF032FF07F11003184600F04C
:104C600047FA002407F582631846FEF7D1FF07F5DF
:104C700084631846FEF7CCFF07F586631846FEF7F7
:104C8000C7FF07F588631846FEF7C2FF07F58A637A
:104C90001846FFF70DFA07F58C631846FFF708FA78
:104CA000234666E007F592631846FEF7B1FFFFE77B
:104CB00007F59D631846FEF7ABFFFFE707F59F6317
:104CC0001846FEF7A5FFFFE707F594631846FEF7C1
:104CD0009FFFFFE707F596631846FEF799FFFFE78A
:104CE00007F598631846FEF793FFFFE707F59A6309
:104CF0001846FEF78DFF17E007F5A1631846FEF78B
:104D000087FFFFE707F5A5631846FEF781FFFFE77A
:104D100007F5A3631846FEF77BFF05E007F5A763D9
:104D20001846FEF775FFFFE707F582631846FEF7A2
:104D30006FFFFFE707F584631846FEF769FFFFE79B
:104D400007F586631846FEF763FFFFE707F58863FC
:104D50001846FEF75DFFFFE707F58A631846FFF781
:104D6000A7F9FFE707F58C631846FFF7A1F900F0F4
:104D7000B5FC184607F26C57BD46BDE8F08300BF8E
:104D80007D3D0008307C0208487C020800000000DD
:104D900080B5ADF59F6D02AF07F1F00040A3D3E9F8
:104DA0000023CDE900234FF000023F4B3F491BF0A9
:104DB000A3FFFDF70BF900F081F800F023F900F0F4
:104DC000F3F807F170033A4A1846114680231A4651
:104DD0001BF082F807F15003184620231A460021E1
:104DE0001BF0A2F807F150014FF00002314BC1E96E
:104DF000042307F13003184620231A4600211BF034
:104E000093F807F130014FF000022A4BC1E900236B
:104E100007F130014FF00002264BC1E9022307F1F0
:104E2000700307F1200004220421FEF711FE07F1B0
:104E3000500307F1100001220421FFF7B1F807F138
:104E400030023B4604211846FFF794F83A4607F132
:104E5000100107F120031846FFF736FD2021164800
:104E6000FDF7C4FB07F1F003184600F041F9642098
:104E7000FDF71AF9F2E73B461846FFF719F9FFE785
:104E800007F110031846FFF713F9FFE707F12003B6
:104E90001846FEF7BDFE00F021FC00BFAFF3008016
:104EA000448B6CE7FBA90A4000000440307C0208F8
:104EB000507C02080000F03F0000024080B594B032
:104EC00000AF07F120033022002118461BF02CF818
:104ED00007F10C0300221A605A609A60DA601A61C6
:104EE0000023BB602E4B1B6C2D4A43F08053136490
:104EF0002B4B1B6C03F08053BB60BB6800237B60B3
:104F0000284B1B6823F44043264A43F400431360B4
:104F1000244B1B6803F440437B607B6802233B62A5
:104F20000123FB6210233B630223BB630023FB636B
:104F300010233B644FF4A8737B640423BB640723F2
:104F4000FB6407F120031846FDF76AFB0346002BBC
:104F500014BF01230023DBB2002B01D000F0C2F804
:104F60000F23FB6002233B6100237B614FF48053DE
:104F7000BB610023FB6107F10C0302211846FDF71A
:104F800091FD0346002B14BF01230023DBB2002B4D
:104F900001D000F0A7F800BF5037BD4680BD00BF6C
:104FA000003802400070004080B500AF134B144A37
:104FB0001A60124B4FF4E1325A60104B00229A6093
:104FC0000E4B0022DA600D4B00221A610B4B0C22B3
:104FD0005A610A4B00229A61084B0022DA610748A5
:104FE000FDF756FF0346002B14BF01230023DBB25D
:104FF000002B01D000F076F800BF80BD0403002034
:105000000044004080B58AB000AF07F114030022CD
:105010001A605A609A60DA601A6100233B612D4B76
:105020001B6B2C4A43F0040313632A4B1B6B03F0E6
:1050300004033B613B690023FB60264B1B6B254A45
:1050400043F080031363234B1B6B03F08003FB606F
:10505000FB680023BB601F4B1B6B1E4A43F0010320
:1050600013631C4B1B6B03F00103BB60BB68002385
:105070007B60184B1B6B174A43F002031363154BFD
:105080001B6B03F002037B607B6800222021124827
:10509000FDF794FA4FF400537B61104BBB61002382
:1050A000FB6107F1140319460D48FDF705F92023AC
:1050B0007B610123BB610023FB6100233B6207F19D
:1050C000140319460448FDF7F7F800BF2837BD461A
:1050D00080BD00BF003802400000024000002110E7
:1050E0000008024080B400AF00BFBD4680BC7047DE
:1050F00080B582B000AF78607868FBF7CBF80346E4
:105100009AB24FF47A7379680348FDF70EFF00BF37
:105110000837BD4680BD00BF0403002080B582B0C3
:1051200000AF786039607B68012B0CD13B684FF68B
:10513000FF72934207D1064800F040FF054A064936
:10514000034800F0B8F900BF0837BD4680BD00BF76
:105150000003002000000020D560000880B500AFEB
:105160004FF6FF710120FFF7D9FF80BD80B483B0F7
:1051700000AF00237B600F4B5B6C0E4A43F480430F
:1051800053640C4B5B6C03F480437B607B680023AF
:105190003B60084B1B6C074A43F080531364054B7C
:1051A0001B6C03F080533B603B6800BF0C37BD466F
:1051B00080BC70470038024080B58AB000AF78608C
:1051C00007F1140300221A605A609A60DA601A61CB
:1051D0007B681B68194A93422BD100233B61184B13
:1051E0001B6C174A43F400331364154B1B6C03F418
:1051F00000333B613B690023FB60114B1B6B104A82
:1052000043F0010313630E4B1B6B03F00103FB60C0
:10521000FB680C237B610223BB610023FB6100233D
:105220003B6207237B6207F1140319460548FDF72B
:1052300043F800BF2837BD4680BD00BF0044004092
:10524000003802400000024080B400AF00BFBD46FD
:1052500080BC704780B400AFFEE780B400AFFEE7CB
:1052600080B400AFFEE780B400AFFEE780B400AFCB
:1052700000BFBD4680BC704780B400AF00BFBD46D4
:1052800080BC704780B400AF00BFBD4680BC704793
:1052900080B500AFFCF7ECFE00BF80BD80B400AF6E
:1052A00001231846BD4680BC704780B582B000AF70
:1052B000786039601AF008F8034616221A604FF039
:1052C000FF3318460837BD4680BD80B582B000AFB9
:1052D00078604FF0FF317868FFF7E7FFFEE780B5B1
:1052E00086B000AFF860B9607A6000237B610AE0A5
:1052F000AFF300800146BB685A1CBA60CAB21A708C
:105300007B6901337B617A697B689A42F0DB7B6859
:1053100018461837BD4680BD80B586B000AFF8602E
:10532000B9607A6000237B6109E0BB685A1CBA60EF
:105330001B781846AFF300807B6901337B617A6983
:105340007B689A42F1DB7B6818461837BD4680BD02
:1053500080B584B000AF7860114B1B68002B02D180
:105360000F4B104A1A600E4B1B68FB600C4B1A68FF
:105370007B6813446A46934207D919F0A5FF034698
:105380000C221A604FF0FF3306E0054B1A687B6869
:105390001344034A1360FB6818461037BD4680BDAE
:1053A00048030020E019002080B483B000AF78608B
:1053B0004FF0FF3318460C37BD4680BC704780B4B1
:1053C00083B000AF786039603B684FF400525A6098
:1053D000002318460C37BD4680BC704780B483B0AC
:1053E00000AF7860012318460C37BD4680BC70477B
:1053F00080B485B000AFF860B9607A6000231846C9
:105400001437BD4680BC704780B400AF124B1B6898
:10541000114A43F0010313600F4B00229A600E4BB8
:105420001B680D4A23F0847323F4803313600A4B06
:105430000A4A5A60084B1B68074A23F4802313600A
:10544000054B0022DA60064B4FF000629A6000BF05
:10545000BD4680BC704700BF0038024010300024B9
:1054600000ED00E0DFF834D0002103E00C4B5B5886
:10547000435004310B480C4B42189A42F6D30B4A66
:1054800002E0002342F8043B094B9A42F9D3FFF7AC
:10549000BBFF1AF075FBFFF77BFC70470080012013
:1054A00090C8020800000020DC020020DC0200207E
:1054B000E0190020FEE70B460146184619F0F6BE3B
:1054C0007FB500241023CDE90234036800949E695F
:1054D0008DF8044015466B461268B0479DF80430BD
:1054E00003F00603062B03BF009B2B600120204620
:1054F00004B070BD0098904214BF01200620704790
:1055000010B5034B0360044600F03FFD204610BD7C
:10551000787D020810B50446FFF7F2FF2046082107
:1055200000F042F8204610BD2DE9F0411F46DDE9AC
:105530000834DDF8188098450646154607D10799C6
:1055400000F026FD18B165710020BDE8F0813946F4
:10555000304600F01DFD0028F6D00123C4F800807D
:105560002571A371F0E738B515461C4600F010FD13
:1055700020B10823E36006232560237138BD2DE99F
:10558000F04105460C4616461F4600F001FD48B99D
:10559000032F07D823683246294620465B69BDE8B9
:1055A000F0411847BDE8F0810EF060B80EF05EB82B
:1055B0001A4A536870B5A0F10804164623B150F892
:1055C000081C6518AB4203D940F8043C746070BDF8
:1055D00006D1D3E90035194440E902155460F6E7D5
:1055E00004325E684EB1B54202D21A1D3346F8E766
:1055F00001BF2E686D685D60891913681D685E19AA
:10560000B4421FBF5B6840F8043C136840F8081CB4
:1056100006BF491919605C60D9E700BF4C03002040
:1056200000F1080330B5082B0E4A38BF08230733B2
:1056300052F8040F23F0070368B1D0E900148B423D
:105640000AD9021D2046F7E7C5186C60C1501068E2
:1056500003601560083030BDC91A0729F4D81460FA
:10566000F8E700BF4C03002010B500F1800420468D
:105670001AF0DAFB034630B92046FFF7D1FF0346A4
:1056800008B900F07BFB8022002118461AF04CFC80
:10569000803010BD064A93688038984205D9D26898
:1056A0001344984201D2FFF783BF1AF0C5BB00BF75
:1056B0004C03002038B5084C4FF41E652846E560C1
:1056C0001AF0B2FBA06010B9E060606038BD002342
:1056D000606005604360F9E74C0300201EB400F0F1
:1056E0009CF81EBCFCF788FA0378472B17D1437847
:1056F0004E2B14D18378552B11D1C378432B0ED167
:105700000379432B0BD143792B2B08D183792B2B96
:1057100005D1C07901288CBF0020012070470020EE
:10572000704700002DE9F3411D460378472B0E46D4
:105730000246C17913D143784E2B10D18378552B73
:105740000DD1C378432B0AD10379462B07D1437976
:105750004F2B04D18379522B01D1002931D010462F
:10576000FFF7C2FF80F00100C0B2002300240194C3
:1057700053BB58BB01290ABF52F8203CA2F12003B9
:10578000783B012908BF52F8202C1C6818BF5832FA
:105790000192236820469B689847C8B1019B1B680B
:1057A00001930227336801AAD3F810802146012310
:1057B0003046C04770B1019B2B60384602B0BDE84F
:1057C000F08101230846D1E7034CE2E7034CE0E710
:1057D0000127E7E70746F0E79C7D0208A47D020861
:1057E00010B5044600F03AF802462046A4F1200124
:1057F000FFF77AFF60B154F8043C0133012B44F801
:10580000043C03D1936844F8083C9160012010BD2A
:105810009368002BF9D000F0B1FA10B500F01EF833
:10582000826801460AB900F0A9FA02F12004204674
:10583000FFF75AFF40B1D369013BD36113B99069B7
:1058400088609361204610BD8860FBE708B519F0B9
:10585000E6FC08B519F0E3FC70470000004870470B
:105860005C03002030B500231A4610F8015B05F0F8
:105870007F04944023432C0602F10702F5D40B6009
:1058800030BD30B500231A4610F8014B04F07F05F7
:1058900095402B43250602F10702F5D41F2A06D8AE
:1058A000640642BF4FF0FF3404FA02F213430B6068
:1058B00030BD50282DE9F3410646884615461F465F
:1058C00008D1D01C20F0030050F8044B3C6002B01B
:1058D000BDE8F08100F00F030C2B2ED8DFE803F0B9
:1058E00025071D25292D2D2D2D182125290001A93C
:1058F0002846FFF7B7FF019C002CE7D006F07003A5
:10590000102B08BFA8464444330648BF2468DDE78F
:1059100001A92846FFF7B5FFEDE7284630F8024B0E
:10592000EAE7284630F9024BE6E7284650F8044BF0
:10593000E2E7284650F8084BDEE719F070FC08B59E
:105940000346FF2B084610D003F07002302A12D015
:1059500007D8202A0BD002D813F0600F05D019F019
:105960005EFC402A0BD0502AF9D1002008BDBDE8CA
:10597000084022F088B8BDE8084022F081B8BDE8B0
:105980000840FCF711BB70B50C4601462046154691
:105990001E46FFF7D4FF334601462A462046BDE89F
:1059A0007040FFF786BF73B50C461546064628B310
:1059B000FCF7FAFA034620462B6010F8011BFF297A
:1059C0001ED002462B1D3046FFF7DDFF10F8013BCD
:1059D0002B75FF2B16D010232B7501A9FFF742FF63
:1059E000019B0344EB6010F8013B6B7501A9FFF7C5
:1059F00039FF019B03442B6102B070BD0346DAE717
:105A00006B60E3E70023EDE71FB503AB00930023D2
:105A10000A461946FBF748FD039805B05DF804FBFC
:105A20002DE9F04F91B00023059300F00303012B03
:105A300006460C4617460ED0022B03D0002B3BD156
:105A400001073BD539462046FCF798FA90B3092068
:105A500011B0BDE8F08F020706D40D6A38460D215B
:105A6000FFF7D2FF85422BD00220002306F0080664
:105A70000DF1280A0643CDF800A00C22194638463D
:105A80000A94FBF735FD062E1CD1D4F83080D4E9FA
:105A90000A59B8F1000F0CBF4FF0010B4FF0030B88
:105AA00016F0080600F00C81BBF1010F40F00481F4
:105AB00000F064F90820CBE719F0B1FB0120D4E72E
:105AC0000620D2E73846FCF775FA81460028B9D09F
:105AD000524601463846FFF766FF394605469DF8AF
