:020000040800F2
:100000000080012061420008494100084D4100087C
:100010005141000855410008594100080000000006
:100020000000000000000000000000005D4100082A
:1000300061410008000000006541000869410008B6
:10004000B1420008B1420008B1420008B1420008C4
:10005000B1420008B1420008B1420008B1420008B4
:10006000B1420008B1420008B1420008B1420008A4
:10007000B1420008B1420008B1420008B142000894
:10008000B1420008B1420008B1420008000000007F
:10009000000000000000000000000000B142000865
:1000A000B1420008B1420008B1420008B142000864
:1000B000B1420008B1420008B1420008B142000854
:1000C000B1420008B1420008B1420008B142000844
:1000D000B1420008B1420008B1420008000000002F
:1000E000B1420008B1420008B1420008000000001F
:1000F000000000000000000000000000B142000805
:1001000000000000B1420008B1420008B1420008FE
:1001100000000000000000000000000000000000DF
:10012000B1420008B1420008B1420008B1420008E3
:10013000B1420008000000000000000000000000C4
:10014000000000000000000000000000B1420008B4
:10015000B1420008B1420008B1420008B1420008B3
:10016000B1420008B1420008000000000000000099
:10017000000000000000000000000000000000007F
:1001800000000000B1420008000000000000000074
:04019000B142000870
:1001A00010B5054C237833B9044B13B10448AFF3B1
:1001B00000800123237010BDDC020020000000003D
:1001C000EC67020808B5034B1BB103490348AFF3C2
:1001D000008008BD00000000E0020020EC6702087B
:1001E00001F0FF01102A2BDB10F0070F08D010F8E8
:1001F000013B013A8B422DD010F0070F42B3F6D1EC
:10020000F0B441EA012141EA014122F007047FF004
:1002100000070023F0E80256083C85EA010586EA5B
:10022000010685FA47F5A3FA87F586FA47F6A5FA97
:1002300087F68EB9EED1F0BC01F0FF0102F00702A3
:1002400032B110F8013B013A83EA010313B1F8D14E
:100250000020704701387047002D06BF354603382F
:10026000073815F0010F07D1013015F4807F02BF68
:10027000013015F4C03F0130F0BC0138704700BFB9
:1002800010F8012B11F8013B012A28BF9A42F7D040
:10029000D01A7047034613F8012B002AFBD1181A15
:1002A0000138704781F0004102E000BF83F0004355
:1002B00030B54FEA41044FEA430594EA050F08BF01
:1002C00090EA020F1FBF54EA000C55EA020C7FEAC5
:1002D000645C7FEA655C00F0E2804FEA5454D4EB42
:1002E0005555B8BF6D420CDD2C4480EA020281EA0C
:1002F000030382EA000083EA010180EA020281EA44
:100300000303362D88BF30BD11F0004F4FEA013195
:100310004FF4801C4CEA113102D0404261EB4101A4
:1003200013F0004F4FEA03334CEA133302D052422A
:1003300063EB430394EA050F00F0A780A4F10104E6
:10034000D5F1200E0DDB02FA0EFC22FA05F2801820
:1003500041F1000103FA0EF2801843FA05F3594106
:100360000EE0A5F120050EF1200E012A03FA0EFC85
:1003700028BF4CF0020C43FA05F3C01851EBE371AF
:1003800001F0004507D54FF0000EDCF1000C7EEBCC
:1003900000006EEB0101B1F5801F1BD3B1F5001F0A
:1003A0000CD349085FEA30004FEA3C0C04F1010429
:1003B0004FEA445212F5800F80F09A80BCF1004F52
:1003C00008BF5FEA500C50F1000041EB045141EAD4
:1003D000050130BD5FEA4C0C404141EB0101013C9D
:1003E00028BFB1F5801FE9D291F0000F04BF01468C
:1003F0000020B1FA81F308BF2033A3F10B03B3F15E
:1004000020020CDA0C3208DD02F1140CC2F10C02ED
:1004100001FA0CF021FA02F10CE002F11402D8BF4B
:10042000C2F1200C01FA02F120FA0CFCDCBF41EA17
:100430000C019040E41AA2BF01EB0451294330BDE6
:100440006FEA04041F3C1CDA0C340EDC04F11404C3
:10045000C4F1200220FA04F001FA02F340EA03009A
:1004600021FA04F345EA030130BDC4F10C04C4F1E0
:10047000200220FA02F001FA04F340EA03002946C0
:1004800030BD21FA04F0294630BD94F0000F83F40A
:10049000801306BF81F480110134013D4EE77FEAED
:1004A000645C18BF7FEA655C29D094EA050F08BF39
:1004B00090EA020F05D054EA000C04BF194610461A
:1004C00030BD91EA030F1EBF0021002030BD5FEA5E
:1004D000545C05D14000494128BF41F0004130BD86
:1004E00014F580043CBF01F5801130BD01F00045DA
:1004F00045F0FE4141F470014FF0000030BD7FEA4D
:10050000645C1ABF194610467FEA655C1CBF0B4647
:10051000024650EA013406BF52EA033591EA030F5E
:1005200041F4002130BD00BF90F0000F04BF002156
:10053000704730B54FF4806404F132044FF0000589
:100540004FF0000150E700BF90F0000F04BF002102
:10055000704730B54FF4806404F1320410F0004568
:1005600048BF40424FF000013EE700BF42004FEA63
:10057000E2014FEA31014FEA02701FBF12F07F43E0
:1005800093F07F4F81F06051704732F07F4208BF97
:10059000704793F07F4F04BF41F40021704730B59E
:1005A0004FF4607401F0004521F000411CE700BFEA
:1005B00050EA010208BF704730B54FF000050AE06D
:1005C00050EA010208BF704730B511F0004502D56E
:1005D000404261EB41014FF4806404F132045FEA70
:1005E000915C3FF4D8AE4FF003025FEADC0C18BF19
:1005F00003325FEADC0C18BF033202EBDC02C2F10B
:10060000200300FA03FC20FA02F001FA03FE40EA9C
:100610000E0021FA02F11444BDE600BF70B54FF0A0
:10062000FF0C4CF4E06C1CEA11541DBF1CEA13557E
:1006300094EA0C0F95EA0C0F00F0DEF82C4481EAE6
:10064000030621EA4C5123EA4C5350EA013518BF06
:1006500052EA033541F4801143F4801338D0A0FBF3
:1006600002CE4FF00005E1FB02E506F00042E0FBA0
:1006700003E54FF00006E1FB03569CF0000F18BFA6
:100680004EF0010EA4F1FF04B6F5007F64F540744E
:1006900004D25FEA4E0E6D4146EB060642EAC621E1
:1006A00041EA55514FEAC52040EA5E504FEACE2E4E
:1006B000B4F1FD0C88BFBCF5E06F1ED8BEF1004F51
:1006C00008BF5FEA500E50F1000041EB045170BDCD
:1006D00006F0004646EA010140EA020081EA030111
:1006E000B4EB5C04C2BFD4EB0C0541EA045170BD0D
:1006F00041F480114FF0000E013C00F3AB8014F187
:10070000360FDEBF002001F0004170BDC4F10004CF
:10071000203C35DA0C341BDC04F11404C4F1200550
:1007200000FA05F320FA04F001FA05F240EA0200AB
:1007300001F0004221F0004110EBD37021FA04F6E1
:1007400042EB06015EEA430E08BF20EAD37070BD9B
:10075000C4F10C04C4F1200500FA04F320FA05F0FA
:1007600001FA04F240EA020001F0004110EBD370FC
:1007700041F100015EEA430E08BF20EAD37070BD6C
:10078000C4F1200500FA05F24EEA020E20FA04F345
:1007900001FA05F243EA020321FA04F001F00041F4
:1007A00021FA04F220EA020000EBD3705EEA430E65
:1007B00008BF20EAD37070BD94F0000F0FD101F094
:1007C0000046400041EB010111F4801F08BF013CCD
:1007D000F7D041EA060195F0000F18BF704703F00B
:1007E0000046520043EB030313F4801F08BF013D92
:1007F000F7D043EA0603704794EA0C0F0CEA13554E
:1008000018BF95EA0C0F0CD050EA410618BF52EA07
:100810004306D1D181EA030101F000414FF000000D
:1008200070BD50EA410606BF1046194652EA43061B
:1008300019D094EA0C0F02D150EA013613D195EA8F
:100840000C0F05D152EA03361CBF104619460AD1D7
:1008500081EA030101F0004141F0FE4141F47001E1
:100860004FF0000070BD41F0FE4141F4780170BDD1
:1008700070B54FF0FF0C4CF4E06C1CEA11541DBF36
:100880001CEA135594EA0C0F95EA0C0F00F0A7F838
:10089000A4EB050481EA030E52EA03354FEA013165
:1008A00000F088804FEA03334FF0805545EA131378
:1008B00043EA12634FEA022245EA111545EA106540
:1008C0004FEA00260EF000419D4208BF964244F1D7
:1008D000FD0404F5407402D25B084FEA3202B61AF6
:1008E00065EB03055B084FEA32024FF480104FF4CA
:1008F000002CB6EB020E75EB030E22BFB61A75463E
:1009000040EA0C005B084FEA3202B6EB020E75EBD0
:10091000030E22BFB61A754640EA5C005B084FEA38
:100920003202B6EB020E75EB030E22BFB61A754605
:1009300040EA9C005B084FEA3202B6EB020E75EB10
:10094000030E22BFB61A754640EADC0055EA060ED1
:1009500018D04FEA051545EA16754FEA06164FEA14
:10096000C30343EA52734FEAC2025FEA1C1CC0D1C0
:1009700011F4801F0BD141EA00014FF000004FF04D
:10098000004CB6E711F4801F04BF01430020B4F10E
:10099000FD0C88BFBCF5E06F3FF6AFAEB5EB030CC6
:1009A00004BFB6EB020C5FEA500C50F1000041EBC3
:1009B000045170BD0EF0004E4EEA113114EB5C0490
:1009C000C2BFD4EB0C0541EA045170BD41F4801163
:1009D0004FF0000E013C90E645EA060E8DE60CEA6B
:1009E000135594EA0C0F08BF95EA0C0F3FF43BAF88
:1009F00094EA0C0F0AD150EA01347FF434AF95EA3F
:100A00000C0F7FF425AF104619462CE795EA0C0F22
:100A100006D152EA03353FF4FDAE1046194622E7EF
:100A200050EA410618BF52EA43067FF4C5AE50EAC9
:100A300041047FF40DAF52EA43057FF4EBAE12E7B9
:100A40004FF0FF3C06E000BF4FF0010C02E000BF9A
:100A50004FF0010C4DF804CD4FEA410C7FEA6C5C7D
:100A60004FEA430C18BF7FEA6C5C1BD001B050EA20
:100A7000410C0CBF52EA430C91EA030F02BF90EA0B
:100A8000020F0020704710F1000F91EA030F58BFCA
:100A9000994208BF90422CBFD8176FEAE37040F02C
:100AA000010070474FEA410C7FEA6C5C02D150EACA
:100AB000013C07D14FEA430C7FEA6C5CD6D152EA85
:100AC000033CD3D05DF8040B704700BF844610464A
:100AD00062468C461946634600E000BF01B5FFF749
:100AE000B7FF002848BF10F1000F01BD4DF808ED19
:100AF000FFF7F4FF0CBF012000205DF808FB00BFEA
:100B00004DF808EDFFF7EAFF34BF012000205DF843
:100B100008FB00BF4DF808EDFFF7E0FF94BF012090
:100B200000205DF808FB00BF4DF808EDFFF7CEFF91
:100B300094BF012000205DF808FB00BF4DF808EDD0
:100B4000FFF7C4FF34BF012000205DF808FB00BFA1
:100B50004FEA410C7FEA6C5C02D150EA013C0AD1B9
:100B60004FEA430C7FEA6C5C02D152EA033C02D1AB
:100B70004FF0000070474FF0010070474FEA41020C
:100B800012F5001215D211D56FF47873B3EB6252DF
:100B900012D94FEAC12343F0004343EA505311F006
:100BA000004F23FA02F018BF404270474FF0000098
:100BB000704750EA013005D111F0004008BF6FF0D6
:100BC000004070474FF00000704700BF4A0011D24C
:100BD00012F5001211D20DD56FF47873B3EB625297
:100BE0000ED44FEAC12343F0004343EA505323FAA3
:100BF00002F070474FF00000704750EA013002D118
:100C00004FF0FF3070474FF0000070474FEA41024D
:100C1000B2F1E04324BFB3F5001CDCF1FE5C0DD95A
:100C200001F0004C4FEAC0024CEA5070B2F1004FA4
:100C300040EB830008BF20F00100704711F0804FA7
:100C400021D113F13872BCBF01F00040704741F46C
:100C500080114FEA5252C2F11802C2F1200C10FA70
:100C60000CF320FA02F018BF40F001004FEAC12354
:100C70004FEAD32303FA0CFC40EA0C0023FA02F3F8
:100C80004FEA4303CCE77FEA625307D150EA0133CE
:100C90001EBF4FF0FE4040F44000704701F000409E
:100CA00040F0FE4040F40000704700BF4FF0FF3CB2
:100CB00006E000BF4FF0010C02E000BF4FF0010C56
:100CC0004DF804CD4FEA40024FEA41037FEA226C1F
:100CD00018BF7FEA236C11D001B052EA530C18BF41
:100CE00090EA010F58BFB2EB030088BFC81738BFA6
:100CF0006FEAE17018BF40F0010070477FEA226C94
:100D000002D15FEA402C05D17FEA236CE4D15FEA8F
:100D1000412CE1D05DF8040B704700BF84460846C3
:100D20006146FFE70FB5FFF7C9FF002848BF10F184
:100D3000000F0FBD4DF808EDFFF7F4FF0CBF0120C9
:100D400000205DF808FB00BF4DF808EDFFF7EAFF53
:100D500034BF012000205DF808FB00BF4DF808ED0E
:100D6000FFF7E0FF94BF012000205DF808FB00BF03
:100D70004DF808EDFFF7D2FF94BF012000205DF889
:100D800008FB00BF4DF808EDFFF7C8FF34BF012096
:100D900000205DF808FB00BF4FEA40024FEA410324
:100DA0007FEA226C02D15FEA402C08D17FEA236CF3
:100DB00002D15FEA412C02D14FF0000070474FF0A2
:100DC0000100704753B94AB9002908BF00281CBF69
:100DD0004FF0FF314FF0FF3001F0F6B8ADF1080CE5
:100DE0006DE904CE00F03EF8DDF804E0DDE9022311
:100DF00004B0704738B505460C4628462146002207
:100E00000023FFF77DFE28B928462146BDE838407B
:100E100000F00AB8284604F1004100F005F840420D
:100E200061EB410138BD00BFD0B50C4B0022064636
:100E30000F46FFF7F3FBFFF7C9FE0446FFF774FB0D
:100E4000074B0022FFF7EAFB02460B4630463946C5
:100E5000FFF72CFAFFF7BAFE2146D0BD0000F03DA7
:100E60000000F0412DE9F047089E0D4604468E46ED
:100E7000002B40F082808A42174646D9B2FA82F2AD
:100E80004AB1C2F1200105FA02F320FA01F19740BC
:100E900041EA030E94404FEA1748230CBEFBF8FCCE
:100EA000B9B208FB1CEE43EA0E430CFB01F098427A
:100EB0000AD9FB180CF1FF3580F01681984240F2F8
:100EC0001381ACF1020C3B441B1AA4B2B3FBF8F043
:100ED00008FB103344EA034400FB01F1A14209D9A5
:100EE0003C1900F1FF3380F00181A14240F2FE8005
:100EF00002383C44641A40EA0C4000211EB1D44040
:100F00000023C6E90043BDE8F08702B9FFDEB2FA6C
:100F100082F2002A4FD1CB1B4FEA174E1FFA87F8F7
:100F20000121B3FBFEFC250C0EFB1C3345EA0345F7
:100F300008FB0CF3AB4207D97D190CF1FF3002D24C
:100F4000AB4200F2E7808446ED1AA3B2B5FBFEF097
:100F50000EFB105543EA054408FB00F8A04507D9ED
:100F60003C1900F1FF3302D2A04500F2D7801846A9
:100F7000A4EB080440EA0C40C0E78B4208D9002EDD
:100F800000F0AF800021C6E900050846BDE8F08703
:100F9000B3FA83F100294BD1AB4202D3824200F273
:100FA000B780841A65EB030301209E46002EAAD069
:100FB000C6E9004EA7E7C2F1200C01FA02F3974000
:100FC00020FA0CF04FEA174E21FA0CFC1843BCFB38
:100FD000FEF1050C0EFB11CC1FFA87F845EA0C4513
:100FE00001FB08F3AB4204FA02F409D97D1901F1BF
:100FF000FF3C80F08B80AB4240F2888002393D4458
:10100000EB1A85B2B3FBFEF00EFB103345EA034545
:1010100000FB08F3AB4207D97D1900F1FF3C71D208
:10102000AB426FD902383D44EB1A40EA014178E700
:10103000C1F1200C8B4022FA0CF71F4320FA0CF46C
:1010400005FA01F34FEA174E25FA0CF51C43230C61
:10105000B5FBFEF91FFA87F80EFB195543EA054563
:1010600009FB08FAAA4502FA01F200FA01F308D9CD
:101070007D1909F1FF3047D2AA4545D9A9F10209E6
:101080003D44A5EB0A05A4B2B5FBFEF00EFB1055DE
:1010900044EA054400FB08F8A04507D93C1900F1D3
:1010A000FF352DD2A0452BD902383C4440EA0940F7
:1010B000A4EB0804A0FB02894C45C6464D4619D353
:1010C00016D05EB1B3EB0E0264EB050404FA0CFC1F
:1010D000CA404CEA0202CC40C6E900240021BDE827
:1010E000F087314630460EE7AC46EDE6184601E79C
:1010F0004345E6D2B8EB020E69EB07050138E0E79D
:101100002846D3E760468FE78146BAE7614677E72E
:1011100008464BE7ACF1020C3D4415E702383C446D
:1011200026E700BF03685A004CBF43F0004323F09A
:1011300000431844704700BF2DE9F84329B34F1E00
:10114000044615463E464FF0000808EB060101EB49
:10115000D171491004EBC1094846FFF7E3FF03468C
:10116000C80008308F42204409D0AB4209D8FFF7AD
:10117000D9FF0138A8420AD201F10108E5E7AB42E4
:1011800005D9884501D04E1EDFE74FF000094846DB
:10119000BDE8F883012807D0022807D0044B0028B7
:1011A0000CBF18460020704702487047024870473D
:1011B000591800085D1800086118000830B5234B65
:1011C00083B004468D1E3BB301A92846AFF30080CF
:1011D000E8B101992A46FFF7AFFF0146B8B1FFF722
:1011E000A1FF4B68A064012B2BD0002B01F1040060
:1011F00023DBFFF797FF0023C4E913030368002BE9
:1012000010DBFFF78FFF2061002003B030BD00230B
:101210000920236103B030BD0D490E48091AC910D9
:101220000191D7E7C3F30360FFF7B4FF0028206103
:1012300014BF0020092003B030BD0123C4E913030B
:10124000DCE7002323610520DFE700BF000000008A
:1012500040B40208C8B202080368DA0710B50446B1
:1012600006D49B0700F1480009D500F04BFC236829
:10127000590709D51A070ED5DB0613D510BD00F0A6
:1012800039FC23685907F5D404F1D00000F042FC82
:1012900023681A07F0D404F5A87000F043FC236813
:1012A000DB06EBD404F5E870BDE8104000F07EBC2E
:1012B0000346006800B11844704700BF092070471A
:1012C000704700BF70B504460E46316C2046FFF7EC
:1012D00075FF054688B9336C636132462369214640
:1012E000012098470828F0D0072806D12846316CFD
:1012F000FFF7E6FF301D00F0F1FB1CF03FFE00BFE2
:101300002DE9F0470D1D064614460FCDADF5727D53
:101310000DF10C0CACE80F000FCDACE80F000FCDB9
:10132000ACE80F0095E80F0002ADF768D6F818801A
:101330008CE80F0000232B6021E02B6C73614FF4CD
:10134000F07229467AA81DF077FC33697AAA3146F3
:1013500050469847889BCDE9005821466B648146EA
:10136000334632460120B8470446E8B94FF4F072DC
:101370007AA928461DF060FCB9F1080F1BD1296C31
:101380003046FFF71BFF09345FFA84FA81460028D4
:10139000D3D0AB6B4AF01001CDE9005832466B64F4
:1013A00001203346B84708B14FF0090948460DF50A
:1013B000727DBDE8F087B9F1070FF5D12046296CA1
:1013C000FFF77EFF03A800F089FB00BF406C704769
:1013D000F0B5CB6B0B640E1D0F4605460FCEF9B072
:1013E00001AC0FC40FCE0FC40FCE0FC496E80F0090
:1013F0004FF0FF3684E80F00009606E02B696A463E
:10140000294698470828044608D110992846FFF72E
:10141000D5FE0028F2D0092079B0F0BD6846FFF76C
:101420001BFF062CF7D139462846FFF74BFF00BFBC
:1014300030B4DD6BC160826119461D64002230BC8E
:101440005EE700BF70B5C66843690B64AEB9036957
:101450000A4604460D46014602209847072805D053
:1014600008280FD129462046FFF72CFF3046296C6B
:10147000FFF726FF281D00F031FB0122FFF740FF98
:101480001CF07CFD1CF07AFDC2681AB1CA6B0A64BC
:10149000002235E79CE700BF704700BF8368014624
:1014A0000BB1012018477047012912D009D873B930
:1014B0000F2A0CD800EB820218465368009A13607A
:1014C00070470339012994BF012002207047022090
:1014D00070470846704700BF10B584B0002303ACC6
:1014E0000A4600941946FFF7DFFF039804B010BDC9
:1014F000012912D009D873B90F2A0CD800EB820049
:10150000009A12684260184670470339012994BF57
:10151000012002207047022070470846704700BF34
:1015200010B584B0002303AC039200940A46194618
:10153000FFF7DEFF04B010BDF0B5D36B1364151DCB
:101540008C4606460FCDADF50F7D17AC0FC40FCD01
:101550000FC40FCD0FC495E80F004FF0FF3784E89C
:101560000F006546169710E0FFF7DAFF294616A828
:10157000B047034616AA6946082083B9049B9847DA
:10158000052804460CD0092809D026996846FFF79B
:1015900015FE03466A460C2116A8002BE4D0092448
:1015A00016A8FFF759FE20460DF50F7DF0BD00BFD0
:1015B0002DE9F04FCC6C89B00D4654F8041B06940D
:1015C000174600F003081E46002B79D00B0CDAB248
:1015D00009048DF81D30022304EB820405918DF877
:1015E0001C302B6DB8F1020F08BFAC6B13F0010378
:1015F0000CD0384605A900F073FB18B9082009B0D3
:10160000BDE8F08F092009B0BDE8F08FD4F800A044
:10161000BAF1000FEDD0019300F008030293022EFF
:101620004AD0B4F800A0B4F802900434AA6C29F0AF
:10163000010B0F2138469344FFF74EFF834539D8FD
:101640002AF001025A44824294BF002001204FEA4E
:10165000490303F002030AF0010A43EA0A03012BDB
:1016600049D0022B32D0002BCCD1B8F1000F02D0E0
:10167000002840F0CD800434D4F800A0BAF1000F67
:10168000CDD105A9384600F02BFB0028BAD1019B2B
:10169000002BB3D00F213846FFF71EFF0E21024664
:1016A0003846FFF73DFF38466A4A0F21FFF738FFFB
:1016B0000720A8E70020CAE7D4F804900834B5E76B
:1016C000090203230591ADF81C308AE7236823F053
:1016D000004BB8F1000F45D128B1029A002A5CD026
:1016E000BBF1000F74D0002B00DA04340BF1010BB6
:1016F00004EB8B04C0E7B8F1000F19D1B0B1D4E905
:101700000023991C4FEAD2723FF47CAF05F15801D7
:101710000133049100F09080201DFFF7C9FD04AB58
:101720000146284602F0FCFE00285BD10834A3E7FE
:101730000D213846D5F82090FFF7CEFE8145F5D132
:10174000AB6A9C42F2D12046FFF7ECFC0F21024627
:101750003846FFF7E5FE38462A460021FFF7E0FE4F
:10176000072050E70D213846D5F82090FFF7B4FE4A
:10177000814501D02368B6E7AB6A9C42FAD10422C6
:101780000021C5E90B12A318C5F828B06B632368C4
:101790008B4259DB01230193A8E705F15803CDF8EB
:1017A0000C8004F1040AB04691461E460DE00496F2
:1017B000FFF77EFD04AB01460022284602F0B0FE92
:1017C00009F101090AF1040AE8B9D9455046EED1F8
:1017D00038460D21FFF780FE049B2862C5E90934D5
:1017E000062010E781460D213846FFF775FEB9F156
:1017F000020F286225D12B46049A43F82C2F6B62E6
:10180000AC620620FFE646462368DDF80C806AE7F6
:101810002046FFF787FC04340246AC632846144692
:1018200002F0DCFE00283FF4EDAE384622460F21E0
:10183000FFF776FE0720E6E638460D21FFF74CFE5F
:101840002862049B6B62DBE70BF1010004EB800074
:101850007AE700BF91C901080023A9E60123A7E6A2
:101860000223A5E62DE9F0430646C3B015461C4603
:10187000042900F2B980DFE801F09A53B729030088
:10188000002C40F0B180102A00F2AE800368D80628
:1018900000F1F38020AF384600F092F9B06B0023DE
:1018A000012404FA03F22A42014604D051F8042B21
:1018B00047F8232008460133042BF2D1B0633846A1
:1018C00000F074F9002043B0BDE8F083032C40F031
:1018D0008B8094B204EB1243102B4FEA124500F2B6
:1018E000838003681F0700F1D08020AF384600F0E6
:1018F0003BF907EBC501B56B54B10B46E81A01EB98
:10190000C401E4001A5843F8042B8B42FAD1254451
:101910003846B56300F006F9002043B0BDE8F08317
:10192000012C4FEA124895B25AD0052C5CD108EB35
:101930000509B9F1200F57D8B8F10F0F77D9A9468B
:10194000002D40F08880B36B6DB320AF4FF00009DD
:1019500007EBC807043F03EBC50553F8041B47F822
:10196000041FAB42F9D1B9F1000F0FD06F464146C9
:10197000102938BF102107EBC101843903EBC905D9
:1019800053F8040B41F8040FAB42F9D1012C00F0DD
:101990008480B8F10F0FB56345D9B9F1000F02D0BB
:1019A000684600F0B7F8002043B0BDE8F083DCB92A
:1019B000876B2346012094B206F1040C00FA03F26F
:1019C0002242394604D051F8042B4CF823200F460C
:1019D0000133102BF2D115F40050E4D1B76304E0C9
:1019E00008EB0503102B03D9022043B0BDE8F083B8
:1019F000B8F10F0FF8D83368DA0706D5304623F070
:101A0000030340F8483B00F079F820AF384600F077
:101A100075F8B36B002D99D11D460435B563384672
:101A200000F068F8BFE720A800F06CF8B5E7B9F15E
:101A3000100F40D9A9F110093368D90708D523F050
:101A40000103304643F0020340F8483B00F05EF8E3
:101A5000B9F1000F32D033685A0720D4B8F10F0F14
:101A600025D96F463846C8F1100500F057F8002D0B
:101A7000B36B7FF77CAF20AF6AE723F010033360CE
:101A800006F5E87000F09CF804E723F00803036013
:101A900000F5A87000F068F827E720AFBDE73046F2
:101AA00023F0040340F8D03B00F038F8D6E720A834
:101AB00000F02CF8D5E74FF00009BDE7B8F10F0FA3
:101AC0003FF641AF20AF384600F020F8B36B002D51
:101AD0007FF43CAF384600F015F864E700F13401BC
:101AE00091E838009C46A6464CF8045D90E8FF0F4C
:101AF000E54600BD90EC210B704700BF80EC210B48
:101B0000704700BF90EC200B704700BF80EC200BAB
:101B1000704700BFD0EC200B704700BFC0EC200B1B
:101B2000704700BFF0EC0201F0EC0211F0EC022172
:101B3000F0EC0231F0EC0241F0EC0251F0EC026109
:101B4000F0EC0271F0EC0281F0EC0291F0EC02A1F9
:101B5000F0EC02B1F0EC02C1F0EC02D1F0EC02E1E9
:101B6000F0EC02F1704700BFE0EC0201E0EC021182
:101B7000E0EC0221E0EC0231E0EC0241E0EC025149
:101B8000E0EC0261E0EC0271E0EC0281E0EC029139
:101B9000E0EC02A1E0EC02B1E0EC02C1E0EC02D129
:101BA000E0EC02E1E0EC02F1704700BFB0FC018123
:101BB000B0FC0191B0FC01A1B0FC01B1704700BFC5
:101BC000A0FC0181A0FC0191A0FC01A1A0FC01B13D
:101BD000704700BFEC4600B52DE900502DE9FF1F0E
:101BE0004FF000032DE90C0001A9FFF7F1FBDDF830
:101BF00040E012B0704700BFEC4600B52DE9005040
:101C00002DE9FF1F4FF000032DE90C0001A9FFF79C
:101C100019FCDDF840E012B0704700BFEC4600B59B
:101C20002DE900502DE9FF1F4FF000032DE90C00B6
:101C300001A9FFF729FCDDF840E012B0704700BFB2
:101C4000EC4600B52DE900502DE9FF1F4FF00003D1
:101C50002DE90C0001ABFFF7EBFBDDF840E012B023
:101C6000704700BFEC4600B52DE900502DE9FF1F7D
:101C70004FF000032DE90C0001AAFFF75DFCDDF831
:101C800040E012B0704700BF027A7AB9437AA3B13C
:101C90004268013B10B4437213680321141D0172A2
:101CA0001A024460026010BC180E70470368013AC3
:101CB00002721A020260180E7047B020704700BF0F
:101CC00000B585B003AA0023009219460C22FFF745
:101CD000EBFB039805B05DF804FB00BFF0E700BF25
:101CE0002DE9F043054685B00E464FF0000830461A
:101CF000FFF7CAFFB028044600F0B280070620D5DF
:101D000000F0F003802B4DD0902B36D0A02B60D06C
:101D1000B02B74D0C02B00F08B8000F0F803D02BD8
:101D20000BD100F00702013242F400220523012109
:101D30002846FFF797FD0028D9D0092005B0BDE857
:101D4000F0830DF10C09002319468700CDF80090AF
:101D50000D222846FFF7A8FBFFB2039BCDF80090A9
:101D6000043760064CBFDF1BFF18002319460D2205
:101D700028460397FFF7BCFBB9E700F00D030D2BD6
:101D8000DBD003AF002300F00F021946009728466E
:101D9000FFF78AFB0023009719460D222846FFF71C
:101DA000A7FBA4E73046FFF76FFF24022043B0F5FE
:101DB000004FC2D004010023A2B219462846FFF703
:101DC00051FD0028B9D114F4004F18BF4FF001089D
:101DD0008DE7C24302F007034FF47F621A41010707
:101DE00002F47F624FF0000348BF42F4804219467C
:101DF0002846FFF737FD00283FF479AF9DE7B1286B
:101E000033D0B22800F08B80B32839D000F0FC0327
:101E1000B42B92D000F007020132012342F40022D9
:101E200019462846FFF71EFD00283FF460AF84E7FF
:101E3000C62842D0C7284CD000F0F803C02B5BD096
:101E4000C82860D0C9287FF478AF3046FFF71CFF60
:101E5000020300F00F0002F470220130024365E734
:101E6000B8F1000F18D0002068E73046FFF70CFFEC
:101E7000024600283FF461AF10F0F003D0D05CE7D9
:101E80003046FFF701FF010300F00F0001F470215D
:101E9000421C01230A43C3E703AC43460E224146DA
:101EA00000942846FFF700FB0094284643460F2283
:101EB0004146FFF71DFB404640E73046FFF7E4FE92
:101EC000010300F00F0001F47021421C03230A43B8
:101ED000A6E73046FFF7D8FE024600283FF42DAFB4
:101EE00010F0F0037FF429AF04212846FFF7BAFC75
:101EF00000283FF4FCAE20E700F00F02013203237C
:101F000042F420228CE73046FFF7BEFE00F0F002DC
:101F100000F00F031032013343EA023206E70023D8
:101F20000DF10C090D221946CDF800902846FFF757
:101F3000BBFA3046FFF7A8FE02064FF002070CD5A9
:101F4000039B00F07F00B840034430460393FFF743
:101F50009BFE030607F10707F2D4039BCDF8009020
:101F600000F07F0403F50172BC40002314441946BD
:101F70000D2228460394FFF7BBFAB8E610B5C26CF1
:101F800084B0536803248DF80C401B0202F108044E
:101F90000846D279019301A902948DF80D20FFF72C
:101FA0009FFE04B010BD00BF08B5FFF797FE806C20
:101FB00008BD00BF08B5FFF791FEC06CC3790233BE
:101FC00000EB830008BD00BF704700BF38B50E4A64
:101FD0000E4B12781B6805464FF47A70B0FBF2F096
:101FE000B3FBF0F000F08CF808B90F2D01D90120F7
:101FF00038BD0446024629464FF0FF3000F048F84D
:10200000034B20461D6038BD040000201000002056
:102010000800002008B50B4B1A6842F400721A60E1
:102020001A6842F480621A601A6842F480721A6078
:10203000032000F01BF80020FFF7C8FF02F030F883
:10204000002008BD003C0240034A044B11681B7885
:102050000B441360704700BFF8020020040000200A
:10206000014B1868704700BFF80200200749CA6892
:1020700003024FF6FF0003F4E0630240134343F012
:10208000BF6343F40033CB60704700BF00ED00E056
:10209000194BDB68C3F3022330B4C3F10705042DE9
:1020A00003F1040428BF0425062C19D9033B4FF083
:1020B000FF349C4022EA04024FF0FF34AC4021EA96
:1020C00004019940002841EA02010CDB00F1604064
:1020D00000F561400901C9B280F8001330BC7047B7
:1020E00000221346E8E7054B00F00F000901034406
:1020F000C9B2197630BC704700ED00E0FCEC00E09E
:102100000138B0F1807F0DD2074B10B4074C5860F6
:10211000F02084F823000022072110469A6010BCAA
:10212000196070470120704710E000E000ED00E00A
:102130002DE9F04F00230E688E4683B070494FF0B2
:10214000010803E00133102B00F0888008FA03F245
:1021500032EA060402EA060CF4D1DEF8045025F057
:10216000100ABAF1020F7CD0D0F800B04FEA430950
:10217000032404FA09F405F003072BEA040B07FA19
:1021800009F70AF1FF3A47EA0B07BAF1010F6FEAC4
:102190000404076040F28C80C768DEF808203C40E9
:1021A00002FA09F22243EF00C260CBD5554C00225F
:1021B0000192626C42F480426264626C23F0030715
:1021C00007F1804702F4804207F59C37019203F043
:1021D0000304019AD7F80890A4000F22A24029EA2C
:1021E000020A494A904214D002F58062904273D0AC
:1021F000464A904275D0464A904279D0454A90422C
:102200000CBF4FF004094FF0070909FA04F44AEA39
:10221000040AC7F808A00A686FEA0C07EC0354BF69
:102220003A404CEA02020A604C68AA0354BF3C40A0
:102230004CEA04044C608C68EA0254BF3C404CEA0F
:1022400004048C60CA68AC0203F1010354BF3A4035
:102250004CEA0202102BCA607FF478AF03B0BDE8ED
:10226000F08F4FEAD30900EB890903F00707D9F88B
:102270002040BF004FF00F0B0BFA07FB24EA0B0ABC
:10228000DEF81040BC4044EA0A04C9F82040D0F807
:1022900000A04FEA4309032404FA09F405F00307F8
:1022A0002AEA040A07FA09F747EA0A07E44307603B
:1022B000876807EA040ADEF80C7007FA09F747EAAC
:1022C0000A078760D0F804A0C5F300172AEA0202C3
:1022D0009F40174347605FE708FA04F44AEA040A9C
:1022E00097E74FF0020909FA04F44AEA040A90E772
:1022F0004FF0030909FA04F44AEA040A89E700BF27
:10230000003C01400038024000000240000802404A
:10231000000C02400010024002B9090481617047BC
:10232000002800F060812DE9F0410368DD0782B0EC
:1023300004462FD5AD498A6802F00C02042A00F049
:10234000EC808A6802F00C02082A00F0E2806368E0
:10235000B3F5803F00F0EB80B3F5A02F00F0508183
:10236000A24D2A6822F480322A602A6822F4802250
:102370002A60002B40F0E080FFF772FE064605E081
:10238000FFF76EFE801B642800F200812B689B0320
:10239000F6D423689F0728D5944A916811F00C0F52
:1023A00000F09A80916801F00C01082900F09080FB
:1023B000E368002B00F006818D4B8C4E01221A60E1
:1023C000FFF74EFE054605E0FFF74AFE401B0228D8
:1023D00000F2DC8033689807F6D53368226923F071
:1023E000F80343EAC203336023681A075CD4580732
:1023F0003AD57E4A136C13F0805340F088800193E5
:10240000136C43F080531364136C03F080530193F7
:10241000019B0125774E3368D90540F1A780A36859
:10242000012B00F0B780052B00F026816F4E326F34
:1024300022F001023267326F22F004023267002B71
:1024400040F0AD80FFF70CFE41F28838074605E00A
:10245000FFF706FEC01B404500F29880336F9807D7
:10246000F6D4002D40F0D680A369CBB15F4DAA68A9
:1024700002F00C02082A36D0022B5F4B4FF000020C
:102480001A6000F0CD80FFF7EBFD2C46054604E016
:10249000FFF7E6FD401B022878D823689B01F7D49C
:1024A000002002B0BDE8F081636903B3534B4F4E87
:1024B00001221A60FFF7D4FD054604E0FFF7D0FDC6
:1024C000401B022862D8736F9B07F7D523688EE7FD
:1024D000526856023FF56CAF444A1268950739D5E9
:1024E000E268012A36D0012002B0BDE8F081434AFB
:1024F0003E4E1360FFF7B4FD054604E0FFF7B0FD64
:10250000401B022842D8736F9F07F7D4DEE70025EF
:1025100080E74A6850027FF51AAF344A1268910387
:102520007FF538AF6268002A7FF434AFDBE72F4ACB
:10253000136843F480331360FFF792FD2B4E05467A
:1025400004E0FFF78DFD401B64281FD833689A0311
:10255000F7D51EE7254920690A6822F0F80242EA09
:10256000C0020A601A077FF542AF9DE7336843F463
:1025700080733360FFF774FD07463368DA053FF573
:102580004EAFFFF76DFDC01B0228F6D9032002B045
:10259000BDE8F081154A136F43F001031367FFF79D
:1025A0005FFD124F064641F2883804E0FFF758FD00
:1025B000801B4045EAD83B6F9B07F7D5002D3FF4C1
:1025C00053AF27E00A4A094E1360FFF749FD05465D
:1025D00004E0FFF745FD401B0228D7D83368990770
:1025E000F7D4236801E70120704700BF003802409C
:1025F000000047420070004060004742800E4742A2
:10260000224B1A6842F480221A601A6842F480321F
:102610001A6091E71D4A136C23F08053136423E77B
:10262000FFF71EFD064604E0FFF71AFD801B022897
:10263000ACD82B689901F7D4D4E90736D4E909025C
:10264000E16A334343EA8013520843EA0163013AE3
:102650000F490E4E43EA024301226B600A60FFF706
:10266000FFFC044604E0FFF7FBFC001B02288DD8AA
:1026700033689A01F7D513E7044B1A6F42F004024E
:102680001A671A6F42F001021A6788E700380240A1
:1026900060004742174908B58B6803F00C03042B10
:1026A0001BD0082B17D14A684B6813F4800302F043
:1026B0003F0214D149681048C1F38811A1FB000101
:1026C000FEF780FB0B4B5B68C3F3014301335B00F8
:1026D000B0FBF3F008BD084808BD084808BD4B68CA
:1026E0000648C3F38813A3FB00010023FEF76AFB2F
:1026F000E8E700BF003802400024F40000127A002E
:10270000002800F08680474A136803F00F038B42CD
:102710002DE9F0410D46044609D2CBB2137013687F
:1027200003F00F038B4202D00120BDE8F081236843
:10273000980714D5590704D53B498A6842F4E052FA
:102740008A601A0704D538498A6842F460428A6070
:102750003549A0688A6822F0F00202438A60DF07E8
:1027600021D56268012A56D0931E012B2E4B1B687F
:102770004CD99907D8D52C4EB36823F003031343E3
:10278000B360FFF76DFC41F28838074604E0FFF7BD
:1027900067FCC01B404543D8B368626803F00C0374
:1027A000B3EB820FF3D11F4A136803F00F03AB4260
:1027B00006D9EBB21370136803F00F03AB42B3D129
:1027C00023685A0706D51849E0688A6822F4E0525F
:1027D00002438A601B0707D5134A2169936823F4D3
:1027E000604343EAC1039360FFF754FF0E4A0F4C66
:1027F00092680F49C2F303120346A25C0020D34043
:102800000B60FFF7E3FB0020BDE8F0819801B2D434
:102810008AE701207047044B1B689E03ABD483E713
:10282000032082E7003C024000380240246A02088C
:1028300010000020044B054A9B680549C3F382231E
:102840000868D35CD840704700380240346A0208F8
:1028500010000020044B054A9B680549C3F342332E
:102860000868D35CD840704700380240346A0208D8
:1028700010000020026811692DE9F843C5688368DB
:1028800021F440510446294300691161D16865690A
:102890000343E06921F416412B4321F00C0103436B
:1028A0000B43D3605369A16923F440730B43B0F524
:1028B000004F53619B4B00F09A809A4259D003F528
:1028C00080639A4255D0FFF7B5FF974F636800EBDE
:1028D000800000EB80009B00B0FBF3F3A7FB032319
:1028E0005B091D01FFF7A6FF666800EB800000EBA7
:1028F0008000B600B0FBF6F6FFF79CFF636800EBC4
:10290000800000EB80009B00B0FBF3F3A7FB0323E8
:102910005B094FF0640909FB13631B013233A7FB0A
:1029200003235B0903F0F006FFF784FF626800EB06
:10293000800000EB80009300B0FBF3F8FFF77AFF14
:10294000D4E9002300EB800000EB80009B00B0FB8B
:10295000F3F3A7FB03135B0909FB13831B0132335A
:10296000A7FB0313C3F3431333432B449360BDE826
:10297000F883FFF76FFF6C4F636800EB800000EB9C
:1029800080009B00B0FBF3F3A7FB03235B091D0151
:10299000FFF760FF666800EB800000EB8000B60088
:1029A000B0FBF6F6FFF756FF636800EB800000EB24
:1029B00080009B00B0FBF3F3A7FB03234FF06409F7
:1029C0005B0909FB13631B013233A7FB03235B097C
:1029D00003F0F006FFF73EFF626800EB8000930013
:1029E00000EB8000B0FBF3F8FFF734FFA8E79A4252
:1029F00059D003F580639A4255D0FFF71BFF4A4F29
:102A0000636800EB800000EB80005B00B0FBF3F339
:102A1000A7FB03235B091E01FFF70CFF656800EBB2
:102A2000800000EB80006D00B0FBF5F5FFF702FFC2
:102A3000636800EB800000EB80005B00B0FBF3F309
:102A4000A7FB03235B094FF0640909FB1353DB0069
:102A50003233A7FB03231B0903F4F875FFF7EAFEE3
:102A6000626800EB800000EB80005300B0FBF3F8DD
:102A7000FFF7E0FED4E9002300EB800000EB8000CC
:102A80005B00B0FBF3F3A7FB03135B0909FB1383A4
:102A9000DB003233A7FB0313C3F3421333442B444D
:102AA0009360BDE8F883FFF7D5FE1F4F636800EB26
:102AB000800000EB80005B00B0FBF3F3A7FB032377
:102AC0005B091E01FFF7C6FE656800EB800000EBA6
:102AD00080006D00B0FBF5F5FFF7BCFE636800EB0E
:102AE000800000EB80005B00B0FBF3F3A7FB032347
:102AF0004FF064095B0909FB1353DB003233A7FB7A
:102B000003231B0903F4F875FFF7A4FE626800EBCA
:102B10008000530000EB8000B0FBF3F8FFF79AFE53
:102B2000A8E700BF001001401F85EB5160B338B526
:102B300090F83930044603F0FF0203B322682423DF
:102B400084F83930D36823F40053D3602046FFF76C
:102B500091FE23681A6922F490421A615A6922F0A0
:102B60002A025A61DA680025202142F40052DA6014
:102B7000E56384F8391084F83A10284638BD80F8A7
:102B8000382001F0A9FAD9E7012070472DE9F0417A
:102B9000044690F8390020287CD10E46002955D0F3
:102BA0001546002A52D0984694F83830012B71D03F
:102BB0000023E3630122212384F8393084F838208C
:102BC000FFF74EFAE584E38CA5849BB2256807469F
:102BD000A3B1E28CA168013A92B2B1F5805FE284C0
:102BE00026D0B8F1FF3F34D12B681806FCD516F873
:102BF000013B6B60E38C9BB2002BEAD1B8F1FF3F45
:102C00004BD12B685A06FCD52023002084F839309C
:102C100084F83800BDE8F0812B681B060ED4B8F1AB
:102C2000000F22D0FFF71CFAC01B804525681CD37B
:102C3000B8F1FF3FF0D12B681A06FCD53388226922
:102C4000C3F308036B601ABB0236D3E70120BDE86B
:102C5000F0812B681906CAD4B8F1000F05D0FFF730
:102C6000FFF9C01B80452568BBD2EB6823F4D07305
:102C7000EB606B69202223F0010300216B6184F873
:102C8000392084F8381084F83A200320BDE8F08118
:102C90000136AFE70220BDE8F0812B685B06B3D4B4
:102CA000B8F1000FE1D0FFF7DBF9C01B80452568C4
:102CB000A4D2DAE7F8B5044690F83A00202873D198
:102CC0000D4600294ED01746002A4BD01E4694F8D8
:102CD0003830012B68D00023E3630122222384F8DB
:102CE0003A3084F83820FFF7BBF9E785E38DA785F4
:102CF0009BB20746C3B1E28DA368013A92B2B3F525
:102D0000805FE28520D0701C23682DD11A6891065F
:102D1000FCD522695B680AB103F07F0305F8013B2B
:102D2000E38D9BB2002BE6D12023002084F83A30BB
:102D300084F83800F8BD1A6892060BD4F6B1FFF794
:102D40008FF9C01B864218D3701C2368F3D11A6810
:102D50009106FCD522695B6812BBC3F3080325F812
:102D6000023BDDE70120F8BD1A689206D1D42EB1EE
:102D7000FFF776F9C01B8642C5D22368DA6822F4D1
:102D8000D072DA605A69202122F0010200255A61CE
:102D900084F8391084F8385084F83A100320F8BDCC
:102DA000DBB225F8013BBBE70220F8BD08467047BF
:102DB000D0F804C0BCF1000F1ED08368E3B12DE948
:102DC000F041DB00D1F80C80D0F80CE0A3F108074B
:102DD000002658F826105EF82620A1F10803083ACC
:102DE0003944F3E902458B42E2E90245F9D1013663
:102DF0006645EED1BDE8F081704700BF43688B4265
:102E000003D9C36853F82100704710B5082001F0BA
:102E100029FB0749044605F089FB064A0649204676
:102E200001F058FF204601F033FB01F055FB00BFD5
:102E300094680208D1600008C46C020870B5D1E93A
:102E40000164012E13D08EB11CB3CB68C26803EBB2
:102E50008606043E043B043A53F8044F52F8041F1C
:102E6000D4E90045B342C1E90045F5D170BD002C5D
:102E7000FCD0CB68C2681B68126803EBC401083938
:102E8000083B083AF3E902459942E2E90245F9D1E3
:102E900070BD082001F0E6FA0649044605F046FB3D
:102EA000054A0649204601F015FF204601F0F0FAD8
:102EB00001F012FBB8680208D1600008C46C020877
:102EC0002DE9F84FD0F804904B68994505460C461B
:102ED00026D183688A68934222D1B9F1000F1DD0B0
:102EE000E3B1DB00D0F80CB0D1F80CA0A3F10808D6
:102EF00000275BF827605AF82750A6F10804083D20
:102F00004644F4E90201F5E90223FDF7D1F9A642AE
:102F1000C4E90001F5D10137B945EAD1BDE8F88F20
:102F200006221B491B4812F0A8FF6968194812F0D5
:102F3000F8FF09220646184912F09FFF61683046E3
:102F400012F0EFFF0A221549064612F096FFA96813
:102F5000304612F0E6FF0C221149054612F08DFFB3
:102F6000A168284612F0DDFF12F0DBFE082001F018
:102F700079FA0C49044605F0D9FA0B4A0B49204668
:102F800001F0A8FE204601F083FA01F0A5FA00BF87
:102F9000E468020800060020EC680208F8680208ED
:102FA0000469020814690208D1600008C46C0208B0
:102FB0002DE9F84FD0F804904B68994526D18368E5
:102FC0008A68934222D1B9F1000F1DD0E3B1DB0032
:102FD000D0F80CB0D1F80CA0A3F1080800275BF8DA
:102FE00027605AF82750A6F10804083D4644F4E942
:102FF0000201F5E90223FDF759F9A642C4E90001EF
:10300000F5D10137B945EAD1BDE8F88F082001F0C4
:1030100029FA0749044605F089FA064A0649204676
:1030200001F058FE204601F033FA01F055FA00BFD6
:103030003C690208D1600008C46C02082DE9F04721
:1030400000220E4604460023D1E90001FDF74EFDA3
:1030500000BBD4F80490B9F1000F19D0A368BBB13C
:10306000DB00D4F80CA00746A3F108085AF8275053
:10307000A5F108044544F4E90201D6E90023FDF76F
:10308000F7FBA542C4E90001F5D101374F45EDD169
:10309000BDE8F087082001F0E5F90749044605F08E
:1030A00045FA064A0649204601F014FE204601F082
:1030B000EFF901F011FA00BF64690208D16000085D
:1030C000C46C02082DE9F8436FF0604391469942C1
:1030D000174A41600546C0F80890026026D28F006A
:1030E00038460C4601F010FE0646E860DCB1B9F146
:1030F000805F1BD24FEAC908002400E0EE6840461A
:1031000001F002FE30510434A742F7D1B9F1000FAB
:1031100009D00024EB6842461859002104341BF002
:10312000B3FDA742F6D12846BDE8F88301F08FFA37
:10313000D86902082DE9F04F14468DB063680A92F1
:103140008A6809919A4208905BD1A268099C6168DB
:10315000FFF7B8FF089A53680693002B4DD0936889
:103160000493002B49D0A3680793DB00083B0B9323
:1031700000230593079B002B39D0099B089A0598DB
:10318000DB68D16853F8203051F820100A9A019179
:10319000A3F10801D26803910B994FF0000803EBEB
:1031A000010A131F0293C346019B03EB0809D9E9E7
:1031B0000045DDE9027657F8043F4344D3E90001B6
:1031C000F6E90223FDF72AFA02460B462046294675
:1031D000FDF76EF8B24504460D46C9E90045EAD14F
:1031E000049B0BF1010B9B4508F10808DCD1059B02
:1031F000069A013393420593BCD108980DB0BDE8FF
:10320000F08F082001F02EF90649044605F08EF9EA
:10321000054A0649204601F05DFD204601F038F9D7
:1032200001F05AF97C690208D1600008C46C0208F8
:103230002DE9F0470C4692466FF060421F4944600A
:103240009442C0F808A0016036D2A6000746304676
:103250001D4601F059FD8146F86054B3BAF1805F14
:103260002AD24FEACA08002401E0D7F80C90404661
:1032700001F04AFD49F804000434A642F5D1BAF140
:10328000000F16D0D7F80C90A5F1080C0020A8F17B
:10329000080E59F800106246A1F108037144F2E9E2
:1032A0000245E3E902459942F9D104308642C4441B
:1032B000EFD13846BDE8F08701F0C9F9D8690208B6
:1032C0002DE9F0410746224B48688A683B606FF061
:1032D00060439842C7E9010237D280000E4601F0F0
:1032E00013FD7B68F8606BB30024B868B0F1805FB1
:1032F0002BD2C000FD6801F007FDD7F804C045F8E7
:1033000024000134A445F0D8BCF1000F1AD0BB68EA
:10331000C3B1DB00D7F80CE0D6F80C80A3F10800AD
:10332000002658F826105EF82620A1F10803083A76
:103330000144F3E902459942E2E90245F9D1013637
:10334000B445EED13846BDE8F08101F080F900BF08
:10335000D8690208426838B50C4B03600546C3685B
:1033600052B1002453F8240060B101F01DF86A68DE
:10337000EB6801349442F5D313B1184601F014F808
:10338000284638BD01349442ECD3F5E7D8690208E9
:1033900043680B6083681360704700BF38B51546FB
:1033A0000446FFF78DFF29462046FFF789FD20469A
:1033B00038BD2046FFF7CEFF01F08EF838B5154630
:1033C0000446FFF77DFF29462046FFF7F1FD204622
:1033D00038BD2046FFF7BEFF01F07EF810B5044669
:1033E000FFF7E6FD204610BD10B50446FFF7A2FE2C
:1033F000204610BD2DE9F84F04461746FFF760FF41
:10340000D4F80480B8F1000F1CD0A368D3B1DB005E
:10341000D4F80C90A3F108054FF0000A59F82A30AF
:10342000A3F1080603EB050BF6E90201D7E9002337
:10343000FDF7F4F8B345C6E90001F5D10AF1010A38
:10344000C245EBD12046BDE8F88F00BF38B5154620
:103450000446FFF735FF29462046FFF7EFFD2046DB
:1034600038BD2046FFF776FF01F036F82DE9F84326
:103470000C46D1E901210746FFF724FED4F804E009
:10348000BEF1000F1DD0A068D8B1FB68D4F80C8045
:10349000A3F1040C0CEB80004FF0000958F8291040
:1034A0004FEAC9060839624652F8043FF1E902457D
:1034B00033448242C3E90045F6D109F10109F145DF
:1034C000ECD13846BDE8F883F8B50E466FF060439E
:1034D0001549466001229E420160826021D2B500FA
:1034E0000446284601F010FC0746E060AEB1002615
:1034F00000E0E768082001F007FCB8510436B54247
:10350000F7D1E368043D1D440020043B002153F83B
:10351000042FAB42C2E90001F9D1044B23602046DD
:10352000F8BD01F094F800BFD8690208E869020804
:103530002DE9F0410E46144986600123C0E90013CD
:1035400004460420154601F0DFFBB6F1805FE06021
:1035500018D2F7008046384601F0D6FBC8F80000C4
:103560005EB1E3681B68A5F108021744083BF2E965
:1035700002019742E3E90201F9D1044B236020469E
:10358000BDE8F08101F063F8D8690208E869020833
:103590002DE9F04104460D466FF060421748616026
:1035A00095424FF001012060A16025D24FEA8508C5
:1035B00040461F4601F0A8FB0646E060BDB100256D
:1035C00000E0E668082001F09FFB70510435454596
:1035D000F7D1E268043D1544A7F10803043A52F814
:1035E000041FF3E902679542C1E90067F7D1044B74
:1035F00023602046BDE8F08101F029F8D86902086F
:10360000E869020810B5054C204601F01DFC204673
:10361000034A0449BDE8104000F04BBEFC02002004
:1036200000000020614F00082DE9F04F9046A3B044
:10363000032206460C4602A81146DDE930BA2C9F4B
:103640001D46FFF73FFD032206A81146FFF73AFD8E
:103650000AA801220321FFF737FF0EA80122032148
:10366000FFF732FF1EA842462946FFF7BDFE0021A4
:103670001EA8FFF7C3FB0346D3E90023002102A8DD
:10368000CDE90023FFF7BAFBDDE90023C0E9002301
:103690001EA8FFF75FFE1AA822462946FFF7A4FEE0
:1036A00042461AA91EA8FFF79FFE00211EA8FFF799
:1036B000A5FB0346D3E90023012102A8CDE900239D
:1036C000FFF79CFBDDE90023C0E900231EA8FFF7FC
:1036D00041FE1AA8FFF73EFE002102A8FFF78EFB6D
:1036E0000346D3E90023012102A8CDE90023FFF717
:1036F00085FBDDE900232946C0E9022316A82246FE
:10370000FFF772FE224616A91AA8FFF76DFE424681
:103710001AA91EA8FFF768FE00211EA8FFF76EFB7E
:103720000346022102A8D3E90089FFF767FBC0E93D
:1037300000891EA8FFF70EFE1AA8FFF70BFE16A8B9
:10374000FFF708FE012102A8FFF758FB03460221FC
:1037500002A8D3E90089FFF751FBC0E902890121E2
:1037600002A8FFF74BFB0346022102A8D3E9028916
:10377000FFF744FBC0E90489002106A8FFF73EFBE0
:103780009E4B0022C0E90023012106A8FFF736FB6B
:103790009A4B0022C0E90223022106A8FFF72EFB64
:1037A000964B0022C0E90423294622461AA8FFF7B7
:1037B0001BFE3A461AA91EA8FFF716FE00211EA8F6
:1037C000FFF71CFB034600210AA8D3E90089FFF795
:1037D00015FBC0E900891EA8FFF7BCFD1AA8FFF77A
:1037E000B9FD2246294616A8FFF7FEFD224616A976
:1037F0001AA8FFF7F9FD3A461AA91EA8FFF7F4FD2B
:1038000000211EA8FFF7FAFA034601210AA8D3E90E
:103810000089FFF7F3FAC0E900891EA8FFF79AFDB7
:103820001AA8FFF797FD16A8FFF794FD294612A8DE
:103830002246FFF7D9FD224612A916A8FFF7D4FDAC
:10384000224616A91AA8FFF7CFFD3A461AA91EA8C4
:10385000FFF7CAFD00211EA8FFF7D0FA0346022198
:103860000AA8D3E90045FFF7C9FAC0E900451EA838
:10387000FFF770FD1AA8FFF76DFD16A8FFF76AFDA8
:1038800012A8FFF767FD00210EA8FFF7B7FADDE9E0
:103890002E340121C0E900340EA8FFF7AFFADDE9AC
:1038A0002E340221C0E900340EA8FFF7A7FADDE9A3
:1038B0002E12DBF80030C0E9001202A916A81C681D
:1038C000FFF7D4FD02AA16A91AA8FFF78DFD06AAD4
:1038D0001AA91EA8FFF762FD1EA95846A0471EA8F8
:1038E000FFF738FD1AA8FFF735FD16A8FFF732FDE0
:1038F000DAF8003002A916A81C68FFF7B7FD0EAA77
:103900000AA91AA8FFF75AFD1AAA16A91EA8FFF7B6
:103910006BFD1EA95046A0471EA8FFF71BFD1AA865
:10392000FFF718FD16A8FFF715FD51463046FFF7C3
:10393000C7FC594606F11000FFF7C2FC304C0E944C
:103940000EA8FFF707FD0AA80A94FFF703FD06A8D3
:10395000FFF700FD02A8FFF7FDFC304623B0BDE8ED
:10396000F08F0EE03046FFF7F5FC254C0E940EA8C4
:10397000FFF7F0FC0AA80A94FFF7ECFC06A8FFF793
:10398000E9FC02A8FFF7E6FC00F0A6FD1EA8FFF781
:10399000E1FC1AA8FFF7DEFC16A8FFF7DBFCE4E762
:1039A000F7E7F9E7F2E7F4E7F6E71EA8FFF7D2FC3E
:1039B0001AA8FFF7CFFC16A8FFF7CCFC12A8FFF758
:1039C000C9FCD2E7F4E7F6E7F8E7DFE7E1E7E3E78A
:1039D0001EA8FFF7BFFC1AA8FFF7BCFCC5E7FAE773
:1039E000D4E7D6E7D8E7F3E7F5E71EA8FFF7B2FC80
:1039F000BBE7BAE7024CBDE7C0E700BF0000F03FFD
:103A0000E8690208000000002DE9F04FADF22C5DDE
:103A100000230D4614460AA90BAACDE94433CDE98B
:103A20004633CDE948330790CDE90854FFF7B0FCA1
:103A30000A99012210A8FFF747FD44AB14A8012200
:103A40000321FFF7A5FD032218A81146FFF73AFB53
:103A50001CA801220321FFF735FB012220A81146F3
:103A6000FFF730FB012224A81146FFF72BFB64234C
:103A7000DFF8D4B2AE4DAF4F0693002400261CAB46
:103A8000059318AB0493AC4B07990022CDE90223B0
:103A900010AB00934AA8DDE90823FFF7C5FD4FF0FE
:103AA000640A0FF27C29D9E9008934AA30A914A844
:103AB000CDE90E89FFF76CFC3099012238A8FFF799
:103AC00003FD40A814AA18A9FFF78EFC3CA81CAA65
:103AD00040A9FFF763FC3CA938A8FFF7AFF93CA861
:103AE000FFF738FC40A8FFF735FC0EAA38A940A81C
:103AF000FFF780FC40A914A8FFF770FC40A8FFF76F
:103B000029FC309B002B2FD04FF0000809E014A8AF
:103B1000FFF774F9C0E90045309B08F101084345FF
:103B200022D9414614A8FFF769F9D0E900012246DD
:103B30002B46FCF7E5FF41460028E8D114A8FFF723
:103B40005DF9D0E9000132463B46FCF7F7FF00285B
:103B5000E2D0414614A8FFF751F9309B08F1010863
:103B60004345C0E90067DCD838A8CDF8E0B0FFF7DE
:103B7000F1FB20A924A8FFF71BF928A814A9FFF737
:103B800075FC2CA818AA28A9FFF72EFC14AA2CA9AA
:103B900030A8FFF729FC4FF000084FF080490CAA2D
:103BA00030A934A8CDE90C89FFF750FC14A938A836
:103BB000FFF75CFC1CAA38A93CA8FFF715FC3CAA3F
:103BC00034A940A8FFF7EAFB40A920A8FFF7F0F8C6
:103BD00040A8FFF7BFFB3CA8FFF7BCFB38A8FFF7E6
:103BE000B9FB34A8FFF7B6FB30A8FFF7B3FB2CA84E
:103BF000FFF7B0FB28A8FFF7ADFB002124A8FFF7D3
:103C0000FDF80346002120A8D3E90089FFF7F6F864
:103C1000D0E9002349464046FCF748FB21F0004923
:103C200041A3D3E900234946FCF76AFF18B9BAF16A
:103C3000010A7FF436AF079910AA38A8FFF7D4FB22
:103C4000002114A8FFF7DAF8024608993CA8FFF70C
:103C5000D1FB3CAA38A940A8FFF7A0FB40A910A8B7
:103C6000FFF7ECF840A8FFF775FB3CA8FFF772FBE5
:103C700038A8FFF76FFB4EA8FFF76CFB4AA8FFF7C9
:103C800069FB069B013B06937FF4F9AE194614A825
:103C9000FFF7B4F80346099910AA40A8D3E90045F4
:103CA000FFF7A2FB002140A8FFF7A8F8D0E9000128
:103CB0002246CDE900012B4620494AA81BF0CCFE44
:103CC00040A8FFF747FB1E481BF0A8FD4AA8FCF7D9
:103CD000E1FA4AA982B24FF47A731A48FEF756FF06
:103CE00024A8FFF737FB20A8FFF734FB1CA8FFF739
:103CF00031FB18A8FFF72EFB14A8CDF850B0FFF742
:103D000029FB10A8CDF840B0FFF724FB00200DF2EE
:103D10002C5DBDE8F08FDFF830B02BE0AFF3008012
:103D20009A9999999999B93F7B14AE47E17A843F62
:103D300000002EC000002E4000001040F069020874
:103D4000086A020804030020E869020840A8FFF797
:103D500001FB24A8FFF7FEFA20A8FFF7FBFA1CA836
:103D6000FFF7F8FA18A8FFF7F5FA14A8CDF850B045
:103D7000FFF7F0FA10A8CDF840B0FFF7EBFA00F02B
:103D8000ABFB40A8FFF7E6FA3CA8FFF7E3FA38A838
:103D9000FFF7E0FA4EA8FFF7DDFA4AA8FFF7DAFAD4
:103DA000D7E7F1E7F3E740A8FFF7D4FA3CA8FFF71D
:103DB000D1FA38A8FFF7CEFA34A8FFF7CBFA30A82B
:103DC000FFF7C8FA2CA8FFF7C5FA28A8FFF7C2FA30
:103DD000E0E7EBE7EDE7EFE7F1E7F3E7F5E702E030
:103DE0003CA8FFF7B7FA40A8FFF7B4FA38A8CDF817
:103DF000E0B0FFF7AFFACDE7F5E7F7E7CAE7A8E7E6
:103E0000DFF814B0A8E7DFF810B0A8E7DFF808B0D3
:103E1000A8E7DFF804B0A8E7E8690208F0B50024D5
:103E200095B0CDE90B44CDE90944CDE90344CDE992
:103E30000544204B00940D940294196C1E4A41F0E5
:103E4000805119641B6C03F080530093009B019414
:103E5000136823F4404343F400431360136803F4EE
:103E60004043019301221023CDE90B2302220023BA
:103E7000CDE90E2310224FF4A873CDE910230225BB
:103E80000422072308A8CDE91223019908950F26DB
:103E9000FEF746FA022700224FF48053294602A873
:103EA000CDE90267CDE904230694FEF729FC15B09D
:103EB000F0BD00BF0038024000700040000000006C
:103EC000D0B561A3D3E90023ADF5A26D002460490C
:103ED0008DF80F40CDE9002344A85E4B00221BF073
:103EE000BBFDFEF797F8FFF799FFCDE92444CDE934
:103EF0002644594B049428941A6B584842F0040203
:103F00001A631A6B02F004020492049A05941A6B65
:103F100042F080021A631A6B02F080020592059A41
:103F200006941A6B42F001021A631A6B02F0010246
:103F30000692069A07941A6B42F002021A631B6BF0
:103F400003F00203079322462021079BFEF7E4F9C2
:103F5000434B444826944FF4005224A9CDE924232E
:103F60002026FEF7E5F80127002200233B4824A97C
:103F7000CDE92467CDE92623FEF7DAF83A483B4934
:103F800084600C234FF4E1324361C0E90012C0E9C0
:103F90000344C0E90644FEF7C9FD3549354F802288
:103FA00024A81AF049FE2146202214A81AF06CFE1B
:103FB00004220026114624AB08A8CDE91867CDE9F4
:103FC0002044CDE92244CDE91C67CDE91E67FFF707
:103FD0002FF914AB0CA801220421FFF7D9FA1CAA6F
:103FE00010A80421FFF7A4FA10AA0CA908A8FFF74B
:103FF0000BFD1D4C642301220DF10F012046FEF73D
:1040000059FE9DF80F20642344A92046FEF752FE76
:1040100044A8FCF73FF94FF47A7382B244A92046D2
:10402000FEF7B4FDE6E708E0134C109410A8FFF784
:1040300091F90CA80C94FFF78DF908A8FFF78AF9FD
:1040400000F04AFA0C4CF4E7448B6CE7FBA90A40F9
:10405000106A0208000004400038024000000240DC
:10406000000021100008024004030020004400402A
:10407000086802080000F03FE869020810B5054C26
:10408000204600F0E1FE2046034A0449BDE8104006
:1040900000F00FB90003002000000020614F00086D
:1040A00082B00C4B002100915A6C42F480425A6459
:1040B0005A6C02F480420092009A01911A6C42F00C
:1040C00080521A641B6C03F080530193019B02B071
:1040D000704700BF0038024030B50168184A89B007
:1040E00000239142CDE90233CDE90433069301D098
:1040F00009B030BD02F5FA320093116C114841F459
:1041000000311164116C01F40031009100990193A8
:10411000136B43F001031363136B03F0010301936B
:104120000723019A06930022002302A90C240225EA
:10413000CDE90245CDE90423FDF7FAFF09B030BD12
:104140000044004000000240704700BFFEE700BF8F
:10415000FEE700BFFEE700BFFEE700BF704700BFFD
:10416000704700BF704700BFFDF76EBF012070476A
:1041700008B519F059FF162303604FF0FF3008BD52
:1041800008B519F051FF16230360FEE770B5161E3F
:1041900007DD0C468D19AFF3008004F8010BA54232
:1041A000F9D1304670BD00BF70B5161E07DD0C4654
:1041B0008D1914F8010BAFF30080AC42F9D13046F1
:1041C00070BD00BF0C4A08B5136833B11844694686
:1041D000884208D81060184608BD084B1360184480
:1041E00069468842F6D919F01FFF0C2303604FF08F
:1041F000FF33184608BD00BF48030020E019002027
:104200004FF0FF30704700BF4FF400534B60002069
:10421000704700BF01207047002070470D4B0E48CB
:104220001A68002142F0010210B41A6099601A68FD
:104230000A4C22F0847222F480321A605C601A68A0
:104240004FF0006422F480221A60D960846010BCB0
:10425000704700BF0038024000ED00E0103000243D
:10426000DFF834D0002103E00C4B5B58435004319D
:104270000B480C4B42189A42F6D30B4A02E000233B
:1042800042F8043B094B9A42F9D3FFF7C7FF1AF0F3
:1042900027FBFFF715FE70470080012068B4020875
:1042A00000000020DC020020DC020020E0190020D9
:1042B000FEE70B460146184619F0A8BE7FB500245C
:1042C0001023CDE90234036800949E698DF8044000
:1042D00015466B461268B0479DF8043003F006039C
:1042E000062B03BF009B2B600120204604B070BD4D
:1042F0000098904214BF01200620704710B5034B70
:104300000360044600F087FD204610BD746A020871
:1043100010B50446FFF7F2FF2046082100F042F8EE
:10432000204610BD2DE9F0411F46DDE90834DDF8D7
:10433000188098450646154607D1079900F06EFD8E
:1043400018B165710020BDE8F0813946304600F0B3
:1043500065FD0028F6D00123C4F800802571A37103
:10436000F0E738B515461C4600F058FD20B108238B
:10437000E36006232560237138BD2DE9F041054631
:104380000C4616461F4600F049FD48B9032F07D8D2
:1043900023683246294620465B69BDE8F04118474C
:1043A000BDE8F08118F06ABA18F068BA1A4A536882
:1043B00070B5A0F10804164623B150F8081C651822
:1043C000AB4203D940F8043C746070BD06D1D3E918
:1043D0000035194440E902155460F6E704325E687E
:1043E0004EB1B54202D21A1D3346F8E701BF2E681E
:1043F0006D685D60891913681D685E19B4421FBF3E
:104400005B6840F8043C136840F8081C06BF491973
:1044100019605C60D9E700BF4C03002000F108037D
:1044200030B5082B0E4A38BF0823073352F8040F63
:1044300023F0070368B1D0E900148B420AD9021DAA
:104440002046F7E7C5186C60C1501068036015601E
:10445000083030BDC91A0729F4D81460F8E700BF46
:104460004C03002010B500F1800420461AF08CFBAC
:10447000034630B92046FFF7D1FF034608B900F0E4
:10448000C3FB8022002118461AF0FEFB803010BDCD
:10449000064A93688038984205D9D26813449842F6
:1044A00001D2FFF783BF1AF077BB00BF4C03002097
:1044B00038B5084C4FF41E652846E5601AF064FBD9
:1044C000A06010B9E060606038BD002360600560E6
:1044D0004360F9E74C0300201EB400F09CF81EBCBA
:1044E000FDF78AFB0378472B17D143784E2B14D165
:1044F0008378552B11D1C378432B0ED10379432BED
:104500000BD143792B2B08D183792B2B05D1C07983
:1045100001288CBF00200120704700207047000058
:104520002DE9F3411D460378472B0E460246C1791B
:1045300013D143784E2B10D18378552B0DD1C378EE
:10454000432B0AD10379462B07D143794F2B04D152
:104550008379522B01D1002931D01046FFF7C2FFD9
:1045600080F00100C0B200230024019453BB58BB6B
:1045700001290ABF52F8203CA2F12003783B01290F
:1045800008BF52F8202C1C6818BF583201922368CB
:1045900020469B689847C8B1019B1B68019302277E
:1045A000336801AAD3F81080214601233046C04762
:1045B00070B1019B2B60384602B0BDE8F081012349
:1045C0000846D1E7034CE2E7034CE0E70127E7E7C1
:1045D0000746F0E7986A0208A06A020810B5044688
:1045E00000F082F802462046A4F12001FFF77AFF8E
:1045F00060B154F8043C0133012B44F8043C03D16E
:10460000936844F8083C9160012010BD9368002B2A
:10461000F9D000F0F9FA10B500F066F882680146AA
:104620000AB900F0F1FA02F120042046FFF75AFF20
:1046300040B1D369013BD36113B99069886093613C
:10464000204610BD8860FBE708B519F097FC08B557
:1046500019F094FC0378472B17D143784E2B14D1D3
:104660008378552B11D1C378432B0ED10379432B7B
:104670000BD143792B2B08D183792B2B05D1C07912
:1046800001288CBF0020012070470020704738B5FA
:10469000044600F029F8056802462046A4F12001EE
:1046A000FFF7D8FF28B90DB100F0AEFA1160284627
:1046B00038BD54F80C3C002BB4BFC3F101030133E7
:1046C00044F80C3C53688D4203F1FF33536020469D
:1046D0001CBF44F8105C1160656AFCF7DDFEE6E77C
:1046E0000020704770470000004870475C030020BE
:1046F00030B500231A4610F8015B05F07F049440A2
:1047000023432C0602F10702F5D40B6030BD30B50F
:1047100000231A4610F8014B04F07F0595402B4307
:10472000250602F10702F5D41F2A06D8640642BF07
:104730004FF0FF3404FA02F213430B6030BD5028EF
:104740002DE9F3410646884615461F4608D1D01C80
:1047500020F0030050F8044B3C6002B0BDE8F0814B
:1047600000F00F030C2B2ED8DFE803F025071D25E2
:10477000292D2D2D2D182125290001A92846FFF7C7
:10478000B7FF019C002CE7D006F07003102B08BF88
:10479000A8464444330648BF2468DDE701A92846FB
:1047A000FFF7B5FFEDE7284630F8024BEAE7284669
:1047B00030F9024BE6E7284650F8044BE2E728467A
:1047C00050F8084BDEE719F0D9FB08B50346FF2B7C
:1047D000084610D003F07002302A12D007D8202AE1
:1047E0000BD002D813F0600F05D019F0C7FB402A98
:1047F0000BD0502AF9D1002008BDBDE8084021F0B7
:10480000F2BFBDE8084021F0EBBFBDE80840FDF76E
:10481000CBBB70B50C460146204615461E46FFF739
:10482000D4FF334601462A462046BDE87040FFF7D4
:1048300086BF73B50C461546064628B3FDF7B4FB94
:10484000034620462B6010F8011BFF291ED00246AC
:104850002B1D3046FFF7DDFF10F8013B2B75FF2BBA
:1048600016D010232B7501A9FFF742FF019B0344CB
:10487000EB6010F8013B6B7501A9FFF739FF019B55
:1048800003442B6102B070BD0346DAE76B60E3E7D7
:104890000023EDE71FB503AB009300230A4619463A
:1048A000FCF702FE039805B05DF804FB2DE9F04F1C
:1048B00091B00023059300F00303012B06460C463C
:1048C00017460ED0022B03D0002B3BD101073BD55E
:1048D00039462046FDF752FB90B3092011B0BDE8E0
:1048E000F08F020706D40D6A38460D21FFF7D2FF7C
:1048F00085422BD00220002306F008060DF1280A7D
:104900000643CDF800A00C22194638460A94FCF75D
:10491000EFFD062E1CD1D4F83080D4E90A59B8F145
:10492000000F0CBF4FF0010B4FF0030B16F0080601
:1049300000F00C81BBF1010F40F0048100F064F93C
:104940000820CBE719F01AFB0120D4E70620D2E7B4
:104950003846FDF72FFB81460028B9D05246014664
:104960003846FFF766FF394605469DF83C00FFF7DD
:104970002CFF0F210C903846FFF78CFF20F0010828
:1049800008F1FF380E9BAB4240F2C4802A469DF8E6
:104990003D1006AB0020FFF73CFF9DF83D1002469E
:1049A00007AB0020FFF735FF08AB02469DF83D102E
:1049B0000020FFF72EFF09A9FFF79AFE0A9B069A2F
:1049C00013444345054601D90E9DDBE7079A13447E
:1049D0004345D7D9DDF82080B8F1000F01D00B9BFB
:1049E0009844099D15B10E98013D0544B8F1000F9A
:1049F0003FF46EAF002D00F0F78016F0080302932D
:104A000034D0472323704E2363705523A370432370
:104A1000E370462323714F2363715223A371002354
:104A2000E3714FF0000B07A92846FFF770FE08A9B5
:104A30000390FFF76CFE0799002968D03ADD9DF8D6
:104A40003C00FF2832D000F00703042B3FF67AAF7A
:104A500001A252F823F000BFB14A000845490008FE
:104A60007F4A0008B14A0008A94A0008E379012BEF
:104A70000CBF54F8203C04F158030593D1E70225FC
:104A80000D9A09AB05FB11220C99FFF758FE099905
:104A900031B17CB305AB00222046FFF741FD48B39E
:104AA000079D4FF0030B39E00825E9E70025E7E70C
:104AB0000425E5E7C1F17F5101F57F110D9B01F55B
:104AC0007F513F3103EB8105DCB1029ACAB9059BE6
:104AD0000993043D55F8041F41B109AB0022294454
:104AE0002046FFF71DFD0028F4D0012181F00101CF
:104AF0000029D5D1089D002D72D0039B2B441D4663
:104B000091E753F82110B1FA81F14909F0E74FF02C
:104B1000010BEFE70025A8464FF0010BF3077FF5E7
:104B200005AFBBF1020F3FF4D3AE0D213846059E11
:104B3000FFF7B0FEC4E90A59C4E90806C4F830809A
:104B40000620CBE6002D22DA00F070F8BBF1010F51
:104B500002D1204617F00DFF002D18DA52464946C3
:104B60003846FFF766FE9DF83C003946FFF72DFEFC
:104B70000D9A0C90EB4302EB830353F826200AB105
:104B80000136FAE70422C4E90A60C4E90C230023D1
:104B900009AE1A461946009638460994FCF7A8FC57
:104BA000002319460122009638460995FCF7A0FC1F
:104BB0000F213846FFF76EFE00F0010040EA0800C2
:104BC0000023099000960F2219463846FCF790FC06
:104BD000BBF1020F02D12046FFF700FD07207DE662
:104BE000BBF1000F3FF474AE4FF0020B96E700BF2D
:104BF00008B5804719F0C2F9024B1868BFF35B8F04
:104C0000704700BF1C00002008B5FFF7F5FFFFF755
:104C1000EFFF08B58047FFF7F7FF0000024B186869
:104C2000BFF35B8F704700BF1400002008B5FFF78B
:104C3000F5FFFFF7EEFF012810B503D951F8140C6A
:104C4000FFF7D6FFA1F12803BFF35B8F53E8002FD6
:104C5000013A43E800200028F8D1BFF35B8F5AB92E
:104C600051F81C3C01F158040BB1204698472046EE
:104C7000BDE81040FFF70CBC10BD000038B50025A2
:104C800040E91E1240F8805C0446FFF7C7FF44F875
:104C9000700CFFF7B1FF472304F8583C4E2304F88B
:104CA000573C552304F8563C432304F8553C04F87C
:104CB000543C2B2304F8533C04F8523C044B44F876
:104CC0006C0C04F8515C44F8503CA4F1800038BDF1
:104CD000374C000808B504460D461646FFF704FD9C
:104CE000436801334360324629462046FFF7C6FF3A
:104CF0000446012344F8283B2046FCF76BFF20467E
:104D0000FFF7C5FCFFF780FF17F06EBE08B5FFF791
:104D10007BFF000010B5034B03600446FFF7EEFA7B
:104D2000204610BD406B020810B50446FFF7F2FFA5
:104D300020460C21FFF736FB204610BD2DE9F0413F
:104D4000DDF81880904506460F4615461C460BD0E8
:104D5000B0680368CDF818801E6A2A462346394693
:104D6000B446BDE8F0416047194600F057F8002806
:104D7000EED00620BDE8F0812DE9F14F0D46194631
:104D8000DDE90A4BDDE90CA681461746984600F09E
:104D900045F890B1002D3460377109DB2C44A245F1
:104DA0000CBF06240124B471002001B0BDE8F08FCF
:104DB0000235F9D10123B371F6E7544506D15946BE
:104DC000484600F02BF808B17771EDE7D9F80800F4
:104DD0000368CDE90CA6CDE90A4BDC693A464346A7
:104DE0002946A44601B0BDE8F04F60472DE9F041E7
:104DF00007460C4615461E46FFF7B3FA48B9B86891
:104E000003689F692A4633462146BC46BDE8F04107
:104E10006047BDE8F081704700207047814208B5C7
:104E20000ED0406803782A2B0CD049680B782A2BC7
:104E300008BF0131FBF724FAB0FA80F0400908BD41
:104E40000120FCE70020FAE72DE9F843334D2B68F9
:104E50005A1C07462A60002B5CD1314C314B32483A
:104E6000DFF8F080DFF8F090304E01221A702368EE
:104E700099680BF00FF823682D4859680BF00AF871
:104E800023682C48D9680BF005F82749404610F0F4
:104E9000A5FE274948460BF019FA2649304610F07E
:104EA0009DFE2449244810F099FE3369C6F87480A9
:104EB00043F400533361236820489968C9F8788027
:104EC0000AF0F8FF23681E4859681E4EDFF88C80F0
:104ED0000AF0F0FF23681C48D9681C4C0AF0EAFF6E
:104EE0001649304610F04AFF154940460BF038FA93
:104EF0001549204610F042FF1349154810F03EFFB7
:104F00002369C8F8786043F4005323612B6866670F
:104F100001332B603846BDE8F88300BFD418002069
:104F2000A400002018000020B8030020E80400209E
:104F30006803002090030020740500203004002046
:104F4000E003002040080020080400202007002083
:104F5000B007002000060020580400208C06002026
:104F60000D4A1368591E022B10B50446116011D169
:104F70000A4810F065FE0A4810F062FE094810F079
:104F80005FFE094810F02CFF084810F029FF084880
:104F900010F026FF204610BDD41800200006002087
:104FA000E8040020740500204008002020070020AD
:104FB000B007002070474268511E012A416002D1AB
:104FC00003685B6818477047044A0B6812680360FF
:104FD00093421EBF1A6801321A607047D40800203D
:104FE00002490348002218F033B800BF796B020869
:104FF000DC08002010B5034C22680AB9FFF7F0FF67
:10500000206810BDDC08002000487047796B02085A
:1050100038B5436804465BB10025D4E90132AA42A1
:1050200006D953F8250008B1FFF7C5FF0135F4E7AD
:10503000606808B1FFF7B8F9E3685BB10025D4E90F
:105040000223AA4206D953F8250008B1FFF7B3FF9F
:105050000135F4E7E06808B1FFF7A6F923691BB949
:10506000206958B9204638BD00252369585908B130
:10507000FFF79AF90435182DF7D1F1E7FFF794F906
:10508000F0E703685A1E012B10B50446026006D1F2
:10509000FFF7BEFF2046BDE8104017F0EFBB10BD84
:1050A000054B10B51B6804460068984201D0FFF715
:1050B000E8FF204610BD00BFD40800200A4A38B5DA
:1050C0000B680D4611688B4218BF1A6804460068C9
:1050D0001CBF01321A60814201D0FFF7D2FF2B685A
:1050E0002360204638BD00BFD4080020036823B9E0
:1050F000034A136801331360036000680138704786
:10510000D80800202DE9F84F044616460846002A24
:1051100000F0A180FFF7EAFFA368013B9842054633
:1051200047D900F1040A6FF060439A4534BF4FEA53
:105130008A0B4FF0FF3B5846D4F80480FFF7E4FD9C
:10514000A16807460023994206D100229A450AD950
:1051500047F823200133F9E7626852F8232047F823
:1051600023200133EFE75846D4F80C90FFF7CCFD2D
:10517000A1680023994206D100229A450AD940F835
:1051800023200133F9E7E26852F8232040F8232076
:105190000133EFE7C4E9017AE060B8F1000F02D013
:1051A0004046FFF701F9B9F1000F02D04846FFF77A
:1051B000FBF87368D4F804900133736059F8253014
:1051C0000BB326490868D0B1FFF790FF85422CD178
:1051D0004868D4F804A0FFF789FF5AF82030074642
:1051E0006BB14968304607F061FD43680133804682
:1051F00043605AF82700FFF7DEFE4AF8278059F887
:105200002500FFF7D8FE49F8256000252E46A36843
:10521000AB4220D9E36853F8250020B1FFF7CBFE5D
:10522000E36843F825600135F1E74868FFF75EFF62
:1052300085420ED10868D4F804A0FFF757FF5AF84A
:1052400020300746002BDAD00968304602F05EFCB9
:10525000CBE70831B6E7BDE8F88F00BF986B0208CE
:105260002DE9F041214F3B78BFF35B8FDB0706460A
:105270000C46154606D4384617F09EFB10B138464A
:1052800017F0A6FB1A490868F0B1FFF72FFFA842F4
:1052900048680DD1FFF72AFF0346F16851F8252031
:1052A000AAB104B3236820465B68BDE8F041184703
:1052B000FFF71CFFA84205D10868FFF717FF2B4630
:1052C0000546EAE70831DEE74FF0FF33E5E76268BD
:1052D000501C6060581C18BF023241F825401CBFAA
:1052E000626041F82340BDE8F08100BFD008002093
:1052F000986B020810B5074C2378BFF35B8FDB0770
:1053000006D4204617F058FB10B1204617F060FB7A
:10531000014810BDE4080020681700202DE9F04F77
:10532000C94A016030230746836087B011460020D8
:10533000013B42F8040BFBD17960C4493022084696
:10534000013A41F8043BFBD1C14BF86006241946F1
:10535000013C43F8042BFBD1BE4D39610D60FFF7D2
:1053600053FE03882B80224601232146BA48DFF8EA
:10537000E4B3BA4EDFF8E0A3DFF8E093B84D04F0F1
:10538000D9F8B54AB7493846FFF7BCFE0121B648FF
:1053900017F0C2FE3846B44AB449FFF7B3FEB44A28
:1053A000B44B13604FF00108C2E90244C2E905445E
:1053B000C2E90744C2F804801474948482F86440FB
:1053C000AB49AD48424604F0CBFD3846AA4AAB494A
:1053D000FFF798FEAA4AAB4BC2F804801360384628
:1053E000A949FFF78FFEA94AA94B1360C2F80480B0
:1053F0003846A849FFF786FE4146A74804F08CFED0
:105400003846A54AA549FFF77DFEA54BA54A1C8253
:10541000C3E90028C3E90244C3E90544C3E90744DA
:10542000C3E90944C3E90B449C745C6383F84340BB
:10543000194642469C4804F09FFC38469A4A9B49CC
:10544000FFF760FE9A4A9B48ABF81040CBE9002872
:1054500059464246CBE90244CBE90544CBE907442F
:10546000CBE90944CBE90B448BF81240CBF834402C
:105470008BF8434004F0C2FC38468E4A8E49FFF751
:1054800041FE8E4A8E49C2F80480116038468D492B
:10549000FFF738FE8C4A8D49C2F804801160384607
:1054A0008B49FFF72FFE8B4A3260314642468A48CD
:1054B000C6F80480C6E90244C6E90444C6E90644C5
:1054C000C6E90844C6E90A44C6E90C44C6E90E44E4
:1054D000C6E91044C6E91244C6E91444C6E91644B4
:1054E000C6E91844C6E91A44C6E91C44C6E91E4484
:1054F000C6E92044C6E92244C6E92444C6E9264454
:10550000C6E92844C6E92A44C6E92C44C6E92E4423
:10551000C6F8C04086F8C4400BF00CFB38466E4A13
:105520006E49FFF7EFFD6E4A6E49C2F804801160C4
:1055300038466D49FFF7E6FD6C4A6D49C2F80480B4
:10554000116038466B49FFF7DDFD41466A4804F0BB
:10555000C1FD694A69493846FFF7D4FD41466848AC
:1055600003F0D4FF664A67493846FFF7CBFD414652
:10557000654817F0E1FD3846634A6449FFF7C2FD0C
:10558000634B644AC3F80480C3E90244C3E9054499
:10559000C3E90744C3E909441A601C7483F8244131
:1055A000194642465C4808F083FB38465A4A5B4934
:1055B000FFF7A8FD5A4A5B49C2F8048011603846DB
:1055C0005949FFF79FFD594A5949C2F804801160B3
:1055D00038465849FFF796FD4146574808F044FCC5
:1055E0003846554A5549FFF78DFD554ACAF80020FF
:1055F0005146424653488AF81040CAE90244CAE973
:105600000544CAE90744CAE90944CAE90B44CAE99E
:105610000D44CAF83C408AF86C40CAF8048008F08F
:1056200055FA3846474A4849FFF76CFD474AC9F8DA
:10563000002049464246464889F81040C9E90244DC
:10564000C9E905448CE000BF8816002098150020A9
:1056500080150020740E0020800E00207C0B00209E
:10566000440C00204C180020581600209C190020E3
:10567000EC090020A06C0208080900208018002016
:1056800048170020CC8B0208201900205817002052
:10569000088C02081C1900207016002074180020C5
:1056A0000C0D0020386C0208AC0900209018002076
:1056B000286C0208B80900208C180020500900202E
:1056C000D87B02088818002060090020F07B0208BF
:1056D00084180020388C0208700900201819002056
:1056E00020090020087C02087C18002030090020D6
:1056F000388D020814190020E808002078180020CE
:10570000A01000205018002064160020A0190020CE
:10571000540A0020B06C020814090020C0180020B0
:1057200050170020F0930208801900206017002015
:105730002C9402087C1900207C160020B41800204C
:10574000586C0208C4090020D0180020486C0208D8
:10575000D0090020500D0020940D0020040E0020E0
:10576000C9E90744C9E90944C9E90B44C9E90D4439
:10577000C9F83C4089F86C40C9F8048008F0E8F9A1
:1057800038466D4A6D49FFF7BDFC6D4A6D49C2F858
:105790000480116038466C49FFF7B4FC6B4A6C49D1
:1057A000C2F80480116038466A49FFF7ABFC6A4AC8
:1057B0002A60C5E90244C5E90444C5E90644C5E9CF
:1057C0000844C5E90A44C5E90C44C5E90E44C5E9E5
:1057D0001044C5E91244C5E91444C5E91644C5E9B5
:1057E0001844C5E91A44C5E91C44C5E91E444246AB
:1057F0002946C5F804805948C5E92044C5E9224432
:10580000C5E92444C5E92644C5E92844C5E92A4434
:10581000C5E92C44C5E92E44C5F8C04085F8C4400C
:1058200011F05EFD38464D4A4D49FFF76BFC4D4A7D
:105830004D49C2F80480116038464C49FFF762FCBC
:105840004B4A4C49C2F80480116038464A49FFF778
:1058500059FC4146494808F0E5FA3846474A484964
:10586000FFF750FC474A4849C2F8048011603846A7
:105870004649FFF747FC464A4649C2F80480116092
:1058800038464549FFF73EFC444A4549C2F8048082
:10589000116038464349FFF735FC434A4349C2F893
:1058A0000480116038464249FFF72CFC414B424AC4
:1058B0000092CDE9013B414BCDF814906946384642
:1058C000CDE9033A01F0C4F83D48FC68FFF70EFC4F
:1058D000394A44F820203B48FC68FFF707FC354B69
:1058E00044F820303848FC68FFF700FC44F820B04A
:1058F0003648FC68FFF7FAFB44F820603448FC683F
:10590000FFF7F4FB2D4B44F820303248FC68FFF7DA
:10591000EDFB44F820A00948FC68FFF7E7FB44F8DA
:1059200020900F48FC68FFF7E1FB44F82050384610
:1059300007B0BDE8F08F00BFD0090020CC180020D0
:1059400058090020B0860208C81800206809002005
:10595000C8860208C41800205C940208840900204C
:105960007819002028090020E0860208BC180020D1
:10597000380900205C95020874190020F8080020FE
:10598000B81800204009002058700208781700203D
:10599000480900200070020870170020DC09002070
:1059A0002C70020874170020E4090020D46F02084C
:1059B0006C1700200C0D0020EC090020540A002078
:1059C00080180020901800208C1800201819002042
:1059D000C0180020D018002010B5054C0221204628
:1059E000FFF79CFC034B1C60034B1C6010BD00BF09
:1059F00098090020D4080020E0080020024B1B6812
:105A00000BB9FFF7E9BF7047D408002038B5002371
:105A100003600446084DFFF7F1FF084A2B6812683F
:105A20002360934206D0FFF765FC2B681A680132A9
:105A30001A602360204638BDE0080020D40800200A
:105A40000D4B10B5036090F8433004467BB180687D
:105A500008B1FEF7A9FC606908B1FEF7A5FCE06992
:105A600008B1FEF7A1FC606A08B1FEF79DFC204674
:105A7000FFF7A0FA204610BD286C020810B50446B6
:105A8000FFF7DEFF204616F0F9FE204610BD0000AD
:105A90000D4B10B5036090F8433004467BB180682D
:105AA00008B1FEF781FC606908B1FEF77DFCE06992
:105AB00008B1FEF779FC606A08B1FEF775FC204674
:105AC000FFF778FA204610BD386C020810B504467E
:105AD000FFF7DEFF204616F0D1FE204610BD000085
